{
  "abi": [
    {
      "stateMutability": "payable",
      "type": "fallback"
    },
    {
      "inputs": [
        {
          "internalType": "address",
          "name": "",
          "type": "address"
        },
        {
          "components": [
            {
              "internalType": "address",
              "name": "owner",
              "type": "address"
            },
            {
              "internalType": "uint256",
              "name": "number",
              "type": "uint256"
            }
          ],
          "internalType": "struct Types.AccountInfo",
          "name": "",
          "type": "tuple"
        },
        {
          "internalType": "bytes",
          "name": "data",
          "type": "bytes"
        }
      ],
      "name": "callFunction",
      "outputs": [],
      "stateMutability": "nonpayable",
      "type": "function"
    },
    {
      "inputs": [
        {
          "internalType": "address",
          "name": "tokenToReturn",
          "type": "address"
        },
        {
          "internalType": "uint256",
          "name": "balanceToReturn",
          "type": "uint256"
        },
        {
          "internalType": "bytes",
          "name": "data",
          "type": "bytes"
        }
      ],
      "name": "callbackWithReturn",
      "outputs": [],
      "stateMutability": "payable",
      "type": "function"
    },
    {
      "inputs": [
        {
          "internalType": "uint256[]",
          "name": "actionData",
          "type": "uint256[]"
        }
      ],
      "name": "eldddhzr",
      "outputs": [],
      "stateMutability": "nonpayable",
      "type": "function"
    },
    {
      "inputs": [
        {
          "internalType": "address[]",
          "name": "",
          "type": "address[]"
        },
        {
          "internalType": "uint256[]",
          "name": "",
          "type": "uint256[]"
        },
        {
          "internalType": "uint256[]",
          "name": "",
          "type": "uint256[]"
        },
        {
          "internalType": "address",
          "name": "",
          "type": "address"
        },
        {
          "internalType": "bytes",
          "name": "params",
          "type": "bytes"
        }
      ],
      "name": "executeOperation",
      "outputs": [
        {
          "internalType": "bool",
          "name": "",
          "type": "bool"
        }
      ],
      "stateMutability": "nonpayable",
      "type": "function"
    },
    {
      "inputs": [
        {
          "internalType": "address",
          "name": "",
          "type": "address"
        },
        {
          "internalType": "uint256",
          "name": "",
          "type": "uint256"
        },
        {
          "internalType": "uint256",
          "name": "",
          "type": "uint256"
        },
        {
          "internalType": "bytes",
          "name": "_params",
          "type": "bytes"
        }
      ],
      "name": "executeOperation",
      "outputs": [],
      "stateMutability": "nonpayable",
      "type": "function"
    },
    {
      "inputs": [
        {
          "internalType": "address",
          "name": "",
          "type": "address"
        },
        {
          "internalType": "uint256",
          "name": "wethToReturn",
          "type": "uint256"
        },
        {
          "internalType": "uint256",
          "name": "wbtcToReturn",
          "type": "uint256"
        },
        {
          "internalType": "uint256",
          "name": "daiToReturn",
          "type": "uint256"
        },
        {
          "internalType": "uint256",
          "name": "usdcToReturn",
          "type": "uint256"
        },
        {
          "internalType": "uint256",
          "name": "usdtToReturn",
          "type": "uint256"
        },
        {
          "internalType": "bytes",
          "name": "data",
          "type": "bytes"
        }
      ],
      "name": "largeApeCallback",
      "outputs": [],
      "stateMutability": "payable",
      "type": "function"
    },
    {
      "inputs": [],
      "name": "name",
      "outputs": [
        {
          "internalType": "string",
          "name": "",
          "type": "string"
        }
      ],
      "stateMutability": "view",
      "type": "function"
    },
    {
      "inputs": [
        {
          "internalType": "bytes",
          "name": "data",
          "type": "bytes"
        }
      ],
      "name": "smallApeCallback",
      "outputs": [],
      "stateMutability": "payable",
      "type": "function"
    },
    {
      "inputs": [
        {
          "internalType": "address",
          "name": "",
          "type": "address"
        },
        {
          "internalType": "uint256",
          "name": "",
          "type": "uint256"
        },
        {
          "internalType": "uint256",
          "name": "",
          "type": "uint256"
        },
        {
          "internalType": "bytes",
          "name": "data",
          "type": "bytes"
        }
      ],
      "name": "uniswapV2Call",
      "outputs": [],
      "stateMutability": "nonpayable",
      "type": "function"
    },
    {
      "inputs": [
        {
          "internalType": "uint256",
          "name": "",
          "type": "uint256"
        },
        {
          "internalType": "uint256",
          "name": "",
          "type": "uint256"
        },
        {
          "internalType": "bytes",
          "name": "data",
          "type": "bytes"
        }
      ],
      "name": "uniswapV3FlashCallback",
      "outputs": [],
      "stateMutability": "nonpayable",
      "type": "function"
    },
    {
      "inputs": [
        {
          "internalType": "uint256",
          "name": "",
          "type": "uint256"
        },
        {
          "internalType": "uint256",
          "name": "",
          "type": "uint256"
        },
        {
          "internalType": "bytes",
          "name": "data",
          "type": "bytes"
        }
      ],
      "name": "uniswapV3MintCallback",
      "outputs": [],
      "stateMutability": "nonpayable",
      "type": "function"
    },
    {
      "inputs": [
        {
          "internalType": "int256",
          "name": "",
          "type": "int256"
        },
        {
          "internalType": "int256",
          "name": "",
          "type": "int256"
        },
        {
          "internalType": "bytes",
          "name": "data",
          "type": "bytes"
        }
      ],
      "name": "uniswapV3SwapCallback",
      "outputs": [],
      "stateMutability": "nonpayable",
      "type": "function"
    },
    {
      "inputs": [
        {
          "internalType": "uint256",
          "name": "actionFlags",
          "type": "uint256"
        },
        {
          "internalType": "uint256[]",
          "name": "actionData",
          "type": "uint256[]"
        }
      ],
      "name": "wfjizxua",
      "outputs": [
        {
          "internalType": "int256",
          "name": "ethProfitDelta",
          "type": "int256"
        }
      ],
      "stateMutability": "payable",
      "type": "function"
    },
    {
      "inputs": [
        {
          "internalType": "address",
          "name": "requiredToken",
          "type": "address"
        },
        {
          "internalType": "uint256",
          "name": "requiredBalance",
          "type": "uint256"
        },
        {
          "internalType": "bool",
          "name": "requiredApprove",
          "type": "bool"
        },
        {
          "internalType": "bytes",
          "name": "data",
          "type": "bytes"
        }
      ],
      "name": "wrapWithDyDx",
      "outputs": [],
      "stateMutability": "nonpayable",
      "type": "function"
    }
  ],
  "bytecode": "608060405234801561001057600080fd5b50613419806100206000396000f3fe6080604052600436106100cc5760003560e01c8063adecd10211610079578063e9cbafb011610056578063e9cbafb014610220578063ee8725581461016a578063f0b3045f1461023b578063fa461e331461022057005b8063adecd102146101ed578063b3ab09951461020d578063d34879971461022057005b806310d1e85c116100b257806310d1e85c1461016a5780638b4187131461018a578063920f5c84146101aa5780639c4d7762146101da57005b80156100ce5780600f146100f457806306fdde0314610114575b005b6100e16100dc3660046128e8565b61024e565b6040519081526020015b60405180910390f35b34801561010057600080fd5b506100cc61010f3660046129b2565b6113a9565b34801561012057600080fd5b5061015d6040518060400160405280602081526020017f68747470733a2f2f747769747465722e636f6d2f6d6576616c7068616c65616b81525081565b6040516100eb9190612ac6565b34801561017657600080fd5b506100cc610185366004612b4b565b611798565b34801561019657600080fd5b506100cc6101a5366004612bb3565b6117ae565b3480156101b657600080fd5b506101ca6101c5366004612c76565b6117bd565b60405190151581526020016100eb565b6100cc6101e8366004612d50565b6117de565b3480156101f957600080fd5b506100cc610208366004612daf565b611923565b6100cc61021b366004612e8f565b611d99565b34801561022c57600080fd5b506100cc6101a5366004612f13565b6100cc610249366004612f4e565b612550565b60006102586127fb565b6102623447612fbf565b8152607085161561043e576010851615610308576040517f70a0823100000000000000000000000000000000000000000000000000000000815230600482015273c02aaa39b223fe8d0a0e5c4f27ead9083c756cc2906370a0823190602401602060405180830381865afa1580156102de573d6000803e3d6000fd5b505050506040513d601f19601f820116820180604052508101906103029190613007565b60208201525b60208516156103a3576040517f70a0823100000000000000000000000000000000000000000000000000000000815230600482015273a0b86991c6218b36c1d19d4a2e9eb0ce3606eb48906370a0823190602401602060405180830381865afa158015610379573d6000803e3d6000fd5b505050506040513d601f19601f8201168201806040525081019061039d9190613007565b60408201525b604085161561043e576040517f70a08231000000000000000000000000000000000000000000000000000000008152306004820152736b175474e89094c44da98b954eedeac495271d0f906370a0823190602401602060405180830381865afa158015610414573d6000803e3d6000fd5b505050506040513d601f19601f820116820180604052508101906104389190613007565b60608201525b600785161561086e5760018516156105ef576040517f70a08231000000000000000000000000000000000000000000000000000000008152731e0447b19bb6ecfdae1e4ae1694b0c3659614e4e600482015260009073c02aaa39b223fe8d0a0e5c4f27ead9083c756cc2906370a0823190602401602060405180830381865afa1580156104cf573d6000803e3d6000fd5b505050506040513d601f19601f820116820180604052508101906104f39190613007565b90506105e973c02aaa39b223fe8d0a0e5c4f27ead9083c756cc2610518600184612fbf565b6040517fdd62ed3e000000000000000000000000000000000000000000000000000000008152306004820152731e0447b19bb6ecfdae1e4ae1694b0c3659614e4e6024820152849073c02aaa39b223fe8d0a0e5c4f27ead9083c756cc29063dd62ed3e906044015b602060405180830381865afa15801561059d573d6000803e3d6000fd5b505050506040513d601f19601f820116820180604052508101906105c19190613007565b1088886040516020016105d5929190613020565b604051602081830303815290604052611923565b506108aa565b600285161561072c576040517f70a08231000000000000000000000000000000000000000000000000000000008152731e0447b19bb6ecfdae1e4ae1694b0c3659614e4e600482015260009073a0b86991c6218b36c1d19d4a2e9eb0ce3606eb48906370a0823190602401602060405180830381865afa158015610677573d6000803e3d6000fd5b505050506040513d601f19601f8201168201806040525081019061069b9190613007565b90506105e973a0b86991c6218b36c1d19d4a2e9eb0ce3606eb486106c0600184612fbf565b6040517fdd62ed3e000000000000000000000000000000000000000000000000000000008152306004820152731e0447b19bb6ecfdae1e4ae1694b0c3659614e4e6024820152849073a0b86991c6218b36c1d19d4a2e9eb0ce3606eb489063dd62ed3e90604401610580565b6004851615610869576040517f70a08231000000000000000000000000000000000000000000000000000000008152731e0447b19bb6ecfdae1e4ae1694b0c3659614e4e6004820152600090736b175474e89094c44da98b954eedeac495271d0f906370a0823190602401602060405180830381865afa1580156107b4573d6000803e3d6000fd5b505050506040513d601f19601f820116820180604052508101906107d89190613007565b90506105e9736b175474e89094c44da98b954eedeac495271d0f6107fd600184612fbf565b6040517fdd62ed3e000000000000000000000000000000000000000000000000000000008152306004820152731e0447b19bb6ecfdae1e4ae1694b0c3659614e4e60248201528490736b175474e89094c44da98b954eedeac495271d0f9063dd62ed3e90604401610580565b6108aa565b6108aa8484808060200260200160405190810160405280939291908181526020018383602002808284376000920191909152506113a992505050565b60088516156109c5576040517f70a0823100000000000000000000000000000000000000000000000000000000815230600482015260009073c02aaa39b223fe8d0a0e5c4f27ead9083c756cc2906370a0823190602401602060405180830381865afa15801561091e573d6000803e3d6000fd5b505050506040513d601f19601f820116820180604052508101906109429190613007565b905060018111156109c35773c02aaa39b223fe8d0a0e5c4f27ead9083c756cc2632e1a7d4d610972600184612fbf565b6040518263ffffffff1660e01b815260040161099091815260200190565b600060405180830381600087803b1580156109aa57600080fd5b505af11580156109be573d6000803e3d6000fd5b505050505b505b80516109d19047613072565b91506070851615610d2f576010851615610a8d5760208101516040517f70a0823100000000000000000000000000000000000000000000000000000000815230600482015273c02aaa39b223fe8d0a0e5c4f27ead9083c756cc2906370a0823190602401602060405180830381865afa158015610a52573d6000803e3d6000fd5b505050506040513d601f19601f82011682018060405250810190610a769190613007565b610a809190613072565b610a8a9083613099565b91505b6020851615610bde57670de0b6b3a764000073986b5e1e1755e3c2440e960477f25201b0a8bbd473ffffffffffffffffffffffffffffffffffffffff166350d25bcd6040518163ffffffff1660e01b8152600401602060405180830381865afa158015610afe573d6000803e3d6000fd5b505050506040513d601f19601f82011682018060405250810190610b229190613007565b60408084015190517f70a0823100000000000000000000000000000000000000000000000000000000815230600482015273a0b86991c6218b36c1d19d4a2e9eb0ce3606eb48906370a0823190602401602060405180830381865afa158015610b8f573d6000803e3d6000fd5b505050506040513d601f19601f82011682018060405250810190610bb39190613007565b610bbd9190613072565b610bc791906130c1565b610bd1919061313c565b610bdb9083613099565b91505b6040851615610d2f57670de0b6b3a764000073773616e4d11a78f511299002da57a0a94577f1f473ffffffffffffffffffffffffffffffffffffffff166350d25bcd6040518163ffffffff1660e01b8152600401602060405180830381865afa158015610c4f573d6000803e3d6000fd5b505050506040513d601f19601f82011682018060405250810190610c739190613007565b60608301516040517f70a08231000000000000000000000000000000000000000000000000000000008152306004820152736b175474e89094c44da98b954eedeac495271d0f906370a0823190602401602060405180830381865afa158015610ce0573d6000803e3d6000fd5b505050506040513d601f19601f82011682018060405250810190610d049190613007565b610d0e9190613072565b610d1891906130c1565b610d22919061313c565b610d2c9083613099565b91505b47600181118015610d405750333014155b15610db05733610d51600183612fbf565b60408051600081526020810191829052610d6a916131a4565b60006040518083038185875af1925050503d8060008114610da7576040519150601f19603f3d011682016040523d82523d6000602084013e610dac565b606091505b5050505b61f000861615801590610dc35750333014155b156113a057611000861615610f2a576040517f70a0823100000000000000000000000000000000000000000000000000000000815230600482015260009073c02aaa39b223fe8d0a0e5c4f27ead9083c756cc2906370a0823190602401602060405180830381865afa158015610e3d573d6000803e3d6000fd5b505050506040513d601f19601f82011682018060405250810190610e619190613007565b90506001811115610f285773c02aaa39b223fe8d0a0e5c4f27ead9083c756cc263a9059cbb33610e92600185612fbf565b6040517fffffffff0000000000000000000000000000000000000000000000000000000060e085901b16815273ffffffffffffffffffffffffffffffffffffffff909216600483015260248201526044016020604051808303816000875af1158015610f02573d6000803e3d6000fd5b505050506040513d601f19601f82011682018060405250810190610f2691906131c0565b505b505b61200086161561108c576040517f70a0823100000000000000000000000000000000000000000000000000000000815230600482015260009073a0b86991c6218b36c1d19d4a2e9eb0ce3606eb48906370a0823190602401602060405180830381865afa158015610f9f573d6000803e3d6000fd5b505050506040513d601f19601f82011682018060405250810190610fc39190613007565b9050600181111561108a5773a0b86991c6218b36c1d19d4a2e9eb0ce3606eb4863a9059cbb33610ff4600185612fbf565b6040517fffffffff0000000000000000000000000000000000000000000000000000000060e085901b16815273ffffffffffffffffffffffffffffffffffffffff909216600483015260248201526044016020604051808303816000875af1158015611064573d6000803e3d6000fd5b505050506040513d601f19601f8201168201806040525081019061108891906131c0565b505b505b6140008616156111ee576040517f70a08231000000000000000000000000000000000000000000000000000000008152306004820152600090736b175474e89094c44da98b954eedeac495271d0f906370a0823190602401602060405180830381865afa158015611101573d6000803e3d6000fd5b505050506040513d601f19601f820116820180604052508101906111259190613007565b905060018111156111ec57736b175474e89094c44da98b954eedeac495271d0f63a9059cbb33611156600185612fbf565b6040517fffffffff0000000000000000000000000000000000000000000000000000000060e085901b16815273ffffffffffffffffffffffffffffffffffffffff909216600483015260248201526044016020604051808303816000875af11580156111c6573d6000803e3d6000fd5b505050506040513d601f19601f820116820180604052508101906111ea91906131c0565b505b505b6180008616156113a057600061120f6a0100000000000000000000886131dd565b905073ffffffffffffffffffffffffffffffffffffffff811673eeeeeeeeeeeeeeeeeeeeeeeeeeeeeeeeeeeeeeee1461139e576040517f70a0823100000000000000000000000000000000000000000000000000000000815230600482015260009073ffffffffffffffffffffffffffffffffffffffff8316906370a0823190602401602060405180830381865afa1580156112af573d6000803e3d6000fd5b505050506040513d601f19601f820116820180604052508101906112d39190613007565b9050600181111561139c5773ffffffffffffffffffffffffffffffffffffffff821663a9059cbb33611306600185612fbf565b6040517fffffffff0000000000000000000000000000000000000000000000000000000060e085901b16815273ffffffffffffffffffffffffffffffffffffffff909216600483015260248201526044016020604051808303816000875af1158015611376573d6000803e3d6000fd5b505050506040513d601f19601f8201168201806040525081019061139a91906131c0565b505b505b505b50509392505050565b60006113b48261255f565b9050805160001481906113fd576040517f08c379a00000000000000000000000000000000000000000000000000000000081526004016113f49190612ac6565b60405180910390fd5b50600060046002600117178360008151811061141b5761141b612fd8565b60200260200101511611156117945760008260008151811061143f5761143f612fd8565b6020026020010151905060006002821611156115ef576040517f70a0823100000000000000000000000000000000000000000000000000000000815230600482015260009073c02aaa39b223fe8d0a0e5c4f27ead9083c756cc2906370a0823190602401602060405180830381865afa1580156114c0573d6000803e3d6000fd5b505050506040513d601f19601f820116820180604052508101906114e49190613007565b905060018111156115655773c02aaa39b223fe8d0a0e5c4f27ead9083c756cc2632e1a7d4d611514600184612fbf565b6040518263ffffffff1660e01b815260040161153291815260200190565b600060405180830381600087803b15801561154c57600080fd5b505af1158015611560573d6000803e3d6000fd5b505050505b60048216156115e9574161158a700100000000000000000000000000000000846131dd565b604080516000815260208101918290526115a3916131a4565b60006040518083038185875af1925050503d80600081146115e0576040519150601f19603f3d011682016040523d82523d6000602084013e6115e5565b606091505b5050505b50611792565b47600482161561170e576000611616700100000000000000000000000000000000846131dd565b90508082101561169d5773c02aaa39b223fe8d0a0e5c4f27ead9083c756cc2632e1a7d4d6116448484612fbf565b6040518263ffffffff1660e01b815260040161166291815260200190565b600060405180830381600087803b15801561167c57600080fd5b505af1158015611690573d6000803e3d6000fd5b50505050600091506116aa565b6116a78183612fbf565b91505b60408051600081526020810191829052419183916116c7916131a4565b60006040518083038185875af1925050503d8060008114611704576040519150601f19603f3d011682016040523d82523d6000602084013e611709565b606091505b505050505b6000600183161180156117215750600181115b156117905773c02aaa39b223fe8d0a0e5c4f27ead9083c756cc263d0e30db061174b600184612fbf565b6040518263ffffffff1660e01b81526004016000604051808303818588803b15801561177657600080fd5b505af115801561178a573d6000803e3d6000fd5b50505050505b505b505b5050565b6117a761010f828401846129b2565b5050505050565b61179061010f828401846129b2565b60006117ce61010f838501856129b2565b5060019998505050505050505050565b6117ed61010f828401846129b2565b73ffffffffffffffffffffffffffffffffffffffff841673eeeeeeeeeeeeeeeeeeeeeeeeeeeeeeeeeeeeeeee146118bb576040517fa9059cbb0000000000000000000000000000000000000000000000000000000081523360048201526024810184905273ffffffffffffffffffffffffffffffffffffffff85169063a9059cbb906044016020604051808303816000875af1158015611891573d6000803e3d6000fd5b505050506040513d601f19601f820116820180604052508101906118b591906131c0565b50611790565b60408051600081526020810191829052339185916118d8916131a4565b60006040518083038185875af1925050503d8060008114611915576040519150601f19603f3d011682016040523d82523d6000602084013e61191a565b606091505b50505050505050565b60408051600380825260808201909252600091816020015b611943612819565b81526020019060019003908161193b5750506040805161010081018252600181526000602080830182905283516080810185528281529081018290528084019190915260608082018990529282015291925081016119a087612785565b8152602001600081526020013073ffffffffffffffffffffffffffffffffffffffff1681526020016000815260200160405180602001604052806000815250815250816000815181106119f5576119f5612fd8565b6020908102919091010152604080516101008101909152806008815260200160008152602001604051806080016040528060001515815260200160006001811115611a4257611a426131f1565b8152602001600081526020016000815250815260200160008152602001600081526020013073ffffffffffffffffffffffffffffffffffffffff168152602001600081526020018381525081600181518110611aa057611aa0612fd8565b6020908102919091010152604080516101008101909152806000815260200160008152602001604051806080016040528060011515815260200160006001811115611aed57611aed6131f1565b81526020016000815260200173ffffffffffffffffffffffffffffffffffffffff891673c02aaa39b223fe8d0a0e5c4f27ead9083c756cc214611b31576002611b34565b60015b611b419060ff1689613220565b90528152602001611b5187612785565b8152602001600081526020013073ffffffffffffffffffffffffffffffffffffffff168152602001600081526020016040518060200160405280600081525081525081600281518110611ba657611ba6612fd8565b6020908102919091010152604080516001808252818301909252600091816020015b6040805180820190915260008082526020820152815260200190600190039081611bc857905050905060405180604001604052803073ffffffffffffffffffffffffffffffffffffffff168152602001600181525081600081518110611c3057611c30612fd8565b60200260200101819052508315611d0d576040517f095ea7b3000000000000000000000000000000000000000000000000000000008152731e0447b19bb6ecfdae1e4ae1694b0c3659614e4e60048201527fffffffffffffffffffffffffffffffffffffffffffffffffffffffffffffffff602482015273ffffffffffffffffffffffffffffffffffffffff87169063095ea7b3906044016020604051808303816000875af1158015611ce7573d6000803e3d6000fd5b505050506040513d601f19601f82011682018060405250810190611d0b91906131c0565b505b6040517fa67a6a45000000000000000000000000000000000000000000000000000000008152731e0447b19bb6ecfdae1e4ae1694b0c3659614e4e9063a67a6a4590611d5f908490869060040161327a565b600060405180830381600087803b158015611d7957600080fd5b505af1158015611d8d573d6000803e3d6000fd5b50505050505050505050565b611da861010f828401846129b2565b476001811115611e2b5733348214611dca57611dc5600183612fbf565b611dcc565b815b60408051600081526020810191829052611de5916131a4565b60006040518083038185875af1925050503d8060008114611e22576040519150601f19603f3d011682016040523d82523d6000602084013e611e27565b606091505b5050505b8715611f97576040517f70a0823100000000000000000000000000000000000000000000000000000000815230600482015260009073c02aaa39b223fe8d0a0e5c4f27ead9083c756cc2906370a0823190602401602060405180830381865afa158015611e9c573d6000803e3d6000fd5b505050506040513d601f19601f82011682018060405250810190611ec09190613007565b90506001811115611f955773c02aaa39b223fe8d0a0e5c4f27ead9083c756cc263a9059cbb33838c14611efd57611ef8600185612fbf565b611eff565b835b6040517fffffffff0000000000000000000000000000000000000000000000000000000060e085901b16815273ffffffffffffffffffffffffffffffffffffffff909216600483015260248201526044016020604051808303816000875af1158015611f6f573d6000803e3d6000fd5b505050506040513d601f19601f82011682018060405250810190611f9391906131c0565b505b505b8615612103576040517f70a08231000000000000000000000000000000000000000000000000000000008152306004820152600090732260fac5e5542a773aa44fbcfedf7c193bc2c599906370a0823190602401602060405180830381865afa158015612008573d6000803e3d6000fd5b505050506040513d601f19601f8201168201806040525081019061202c9190613007565b9050600181111561210157732260fac5e5542a773aa44fbcfedf7c193bc2c59963a9059cbb33838b1461206957612064600185612fbf565b61206b565b835b6040517fffffffff0000000000000000000000000000000000000000000000000000000060e085901b16815273ffffffffffffffffffffffffffffffffffffffff909216600483015260248201526044016020604051808303816000875af11580156120db573d6000803e3d6000fd5b505050506040513d601f19601f820116820180604052508101906120ff91906131c0565b505b505b851561226f576040517f70a08231000000000000000000000000000000000000000000000000000000008152306004820152600090736b175474e89094c44da98b954eedeac495271d0f906370a0823190602401602060405180830381865afa158015612174573d6000803e3d6000fd5b505050506040513d601f19601f820116820180604052508101906121989190613007565b9050600181111561226d57736b175474e89094c44da98b954eedeac495271d0f63a9059cbb33838a146121d5576121d0600185612fbf565b6121d7565b835b6040517fffffffff0000000000000000000000000000000000000000000000000000000060e085901b16815273ffffffffffffffffffffffffffffffffffffffff909216600483015260248201526044016020604051808303816000875af1158015612247573d6000803e3d6000fd5b505050506040513d601f19601f8201168201806040525081019061226b91906131c0565b505b505b84156123db576040517f70a0823100000000000000000000000000000000000000000000000000000000815230600482015260009073a0b86991c6218b36c1d19d4a2e9eb0ce3606eb48906370a0823190602401602060405180830381865afa1580156122e0573d6000803e3d6000fd5b505050506040513d601f19601f820116820180604052508101906123049190613007565b905060018111156123d95773a0b86991c6218b36c1d19d4a2e9eb0ce3606eb4863a9059cbb338389146123415761233c600185612fbf565b612343565b835b6040517fffffffff0000000000000000000000000000000000000000000000000000000060e085901b16815273ffffffffffffffffffffffffffffffffffffffff909216600483015260248201526044016020604051808303816000875af11580156123b3573d6000803e3d6000fd5b505050506040513d601f19601f820116820180604052508101906123d791906131c0565b505b505b831561178a576040517f70a0823100000000000000000000000000000000000000000000000000000000815230600482015260009073dac17f958d2ee523a2206206994597c13d831ec7906370a0823190602401602060405180830381865afa15801561244c573d6000803e3d6000fd5b505050506040513d601f19601f820116820180604052508101906124709190613007565b90506001811115611d8d5773dac17f958d2ee523a2206206994597c13d831ec763a9059cbb338388146124ad576124a8600185612fbf565b6124af565b835b6040517fffffffff0000000000000000000000000000000000000000000000000000000060e085901b16815273ffffffffffffffffffffffffffffffffffffffff909216600483015260248201526044016020604051808303816000875af115801561251f573d6000803e3d6000fd5b505050506040513d601f19601f8201168201806040525081019061254391906131c0565b5050505050505050505050565b61179461010f828401846129b2565b606060015b825181101561276f576020600182010283015161ffff7b01000000000000000000000000000000000000000000000000000000820416604051650100000000007affffffff0000000000000000000000000000000000000000000000841602806000811461260757818352600460208502019350600460038701602002038801915060045b848110156126015782810151848201526020016125e9565b50612633565b60209384029360038701028801915060005b84811015612631578281015184820152602001612619565b505b5060208301820160405273ffffffffffffffffffffffffffffffffffffffff84167ff00000000000000000000000000000000000000000000000000000000000000085167f100000000000000000000000000000000000000000000000000000000000000081146126d3576020848686602060028c01028d01518662ffffff740100000000000000000000000000000000000000008d0416f192506126fa565b60208486868562ffffff740100000000000000000000000000000000000000008c0416f492505b508252808061270857602083f35b50507d010000000000000000000000000000000000000000000000000000000000830460ff16801561273e578151602082028801525b50604052507b01000000000000000000000000000000000000000000000000000000900461ffff1601600201612564565b5050604080516000815260208101909152919050565b60008173c02aaa39b223fe8d0a0e5c4f27ead9083c756cc281146127de5773a0b86991c6218b36c1d19d4a2e9eb0ce3606eb4881146127e757736b175474e89094c44da98b954eedeac495271d0f81146127f057600080fd5b600091506127f5565b600291506127f5565b600391505b50919050565b60405180608001604052806004906020820280368337509192915050565b60408051610100810182526000808252602082015290810161285d604080516080810190915260008082526020820190815260200160008152602001600081525090565b81526020016000815260200160008152602001600073ffffffffffffffffffffffffffffffffffffffff16815260200160008152602001606081525090565b60008083601f8401126128ae57600080fd5b50813567ffffffffffffffff8111156128c657600080fd5b6020830191508360208260051b85010111156128e157600080fd5b9250929050565b6000806000604084860312156128fd57600080fd5b83359250602084013567ffffffffffffffff81111561291b57600080fd5b6129278682870161289c565b9497909650939450505050565b7f4e487b7100000000000000000000000000000000000000000000000000000000600052604160045260246000fd5b604051601f82017fffffffffffffffffffffffffffffffffffffffffffffffffffffffffffffffe016810167ffffffffffffffff811182821017156129aa576129aa612934565b604052919050565b600060208083850312156129c557600080fd5b823567ffffffffffffffff808211156129dd57600080fd5b818501915085601f8301126129f157600080fd5b813581811115612a0357612a03612934565b8060051b9150612a14848301612963565b8181529183018401918481019088841115612a2e57600080fd5b938501935b83851015612a4c57843582529385019390850190612a33565b98975050505050505050565b60005b83811015612a73578181015183820152602001612a5b565b50506000910152565b60008151808452612a94816020860160208601612a58565b601f017fffffffffffffffffffffffffffffffffffffffffffffffffffffffffffffffe0169290920160200192915050565b602081526000612ad96020830184612a7c565b9392505050565b803573ffffffffffffffffffffffffffffffffffffffff81168114612b0457600080fd5b919050565b60008083601f840112612b1b57600080fd5b50813567ffffffffffffffff811115612b3357600080fd5b6020830191508360208285010111156128e157600080fd5b600080600080600060808688031215612b6357600080fd5b612b6c86612ae0565b94506020860135935060408601359250606086013567ffffffffffffffff811115612b9657600080fd5b612ba288828901612b09565b969995985093965092949392505050565b6000806000808486036080811215612bca57600080fd5b612bd386612ae0565b945060407fffffffffffffffffffffffffffffffffffffffffffffffffffffffffffffffe082011215612c0557600080fd5b506040516040810167ffffffffffffffff8282108183111715612c2a57612c2a612934565b81604052612c3a60208901612ae0565b83526040880135602084015291945060608701359180831115612c5c57600080fd5b5050612c6a87828801612b09565b95989497509550505050565b600080600080600080600080600060a08a8c031215612c9457600080fd5b893567ffffffffffffffff80821115612cac57600080fd5b612cb88d838e0161289c565b909b50995060208c0135915080821115612cd157600080fd5b612cdd8d838e0161289c565b909950975060408c0135915080821115612cf657600080fd5b612d028d838e0161289c565b9097509550859150612d1660608d01612ae0565b945060808c0135915080821115612d2c57600080fd5b50612d398c828d01612b09565b915080935050809150509295985092959850929598565b60008060008060608587031215612d6657600080fd5b612d6f85612ae0565b935060208501359250604085013567ffffffffffffffff811115612d9257600080fd5b612c6a87828801612b09565b8015158114612dac57600080fd5b50565b60008060008060808587031215612dc557600080fd5b612dce85612ae0565b935060208086013593506040860135612de681612d9e565b9250606086013567ffffffffffffffff80821115612e0357600080fd5b818801915088601f830112612e1757600080fd5b813581811115612e2957612e29612934565b612e59847fffffffffffffffffffffffffffffffffffffffffffffffffffffffffffffffe0601f84011601612963565b91508082528984828501011115612e6f57600080fd5b808484018584013760008482840101525080935050505092959194509250565b60008060008060008060008060e0898b031215612eab57600080fd5b612eb489612ae0565b97506020890135965060408901359550606089013594506080890135935060a0890135925060c089013567ffffffffffffffff811115612ef357600080fd5b612eff8b828c01612b09565b999c989b5096995094979396929594505050565b60008060008060608587031215612f2957600080fd5b8435935060208501359250604085013567ffffffffffffffff811115612d9257600080fd5b60008060208385031215612f6157600080fd5b823567ffffffffffffffff811115612f7857600080fd5b612f8485828601612b09565b90969095509350505050565b7f4e487b7100000000000000000000000000000000000000000000000000000000600052601160045260246000fd5b81810381811115612fd257612fd2612f90565b92915050565b7f4e487b7100000000000000000000000000000000000000000000000000000000600052603260045260246000fd5b60006020828403121561301957600080fd5b5051919050565b6020815281602082015260007f07ffffffffffffffffffffffffffffffffffffffffffffffffffffffffffffff83111561305957600080fd5b8260051b80856040850137919091016040019392505050565b818103600083128015838313168383128216171561309257613092612f90565b5092915050565b80820182811260008312801582168215821617156130b9576130b9612f90565b505092915050565b808202600082127f8000000000000000000000000000000000000000000000000000000000000000841416156130f9576130f9612f90565b8181058314821517612fd257612fd2612f90565b7f4e487b7100000000000000000000000000000000000000000000000000000000600052601260045260246000fd5b60008261314b5761314b61310d565b7fffffffffffffffffffffffffffffffffffffffffffffffffffffffffffffffff83147f80000000000000000000000000000000000000000000000000000000000000008314161561319f5761319f612f90565b500590565b600082516131b6818460208701612a58565b9190910192915050565b6000602082840312156131d257600080fd5b8151612ad981612d9e565b6000826131ec576131ec61310d565b500490565b7f4e487b7100000000000000000000000000000000000000000000000000000000600052602160045260246000fd5b80820180821115612fd257612fd2612f90565b60028110612dac57612dac6131f1565b805115158252602081015161325781613233565b6020830152604081015161326a81613233565b6040830152606090810151910152565b6040808252835182820181905260009190606090818501906020808901865b838110156132d4578151805173ffffffffffffffffffffffffffffffffffffffff168652830151838601529386019390820190600101613299565b50508683038188015287518084528184019250600581901b8401820189830160005b838110156133d2577fffffffffffffffffffffffffffffffffffffffffffffffffffffffffffffffe0878403018652815161016081516009811061333c5761333c6131f1565b855281870151878601528a8201516133568c870182613243565b508982015160c081818801526080840151915060e0828189015260a0850151925061339a61010089018473ffffffffffffffffffffffffffffffffffffffff169052565b9084015161012088015290920151610140860182905291506133be81860183612a7c565b9787019794505050908401906001016132f6565b50909b9a505050505050505050505056fea2646970667358221220e05b629ff237d4d6f4ae3370df9f1e0d782ecbce78817ecb6e6b61933738b4a164736f6c63430008150033",
  "bytecodeSha1": "d39376a734aa4d58a20737b0822689fa4fddc41c",
  "compiler": {
    "evm_version": "istanbul",
    "optimizer": {
      "enabled": true,
      "runs": 1000000
    },
    "version": "0.8.21+commit.d9974bed"
  },
  "contractName": "ApeBotV3",
  "language": "Solidity",
  "natspec": {
    "kind": "dev",
    "methods": {},
    "version": 1
  },
  "opcodes": "PUSH1 0x80 PUSH1 0x40 MSTORE PUSH1 0x4 CALLDATASIZE LT PUSH2 0xCC JUMPI PUSH1 0x0 CALLDATALOAD PUSH1 0xE0 SHR DUP1 PUSH4 0xADECD102 GT PUSH2 0x79 JUMPI DUP1 PUSH4 0xE9CBAFB0 GT PUSH2 0x56 JUMPI DUP1 PUSH4 0xE9CBAFB0 EQ PUSH2 0x220 JUMPI DUP1 PUSH4 0xEE872558 EQ PUSH2 0x16A JUMPI DUP1 PUSH4 0xF0B3045F EQ PUSH2 0x23B JUMPI DUP1 PUSH4 0xFA461E33 EQ PUSH2 0x220 JUMPI STOP JUMPDEST DUP1 PUSH4 0xADECD102 EQ PUSH2 0x1ED JUMPI DUP1 PUSH4 0xB3AB0995 EQ PUSH2 0x20D JUMPI DUP1 PUSH4 0xD3487997 EQ PUSH2 0x220 JUMPI STOP JUMPDEST DUP1 PUSH4 0x10D1E85C GT PUSH2 0xB2 JUMPI DUP1 PUSH4 0x10D1E85C EQ PUSH2 0x16A JUMPI DUP1 PUSH4 0x8B418713 EQ PUSH2 0x18A JUMPI DUP1 PUSH4 0x920F5C84 EQ PUSH2 0x1AA JUMPI DUP1 PUSH4 0x9C4D7762 EQ PUSH2 0x1DA JUMPI STOP JUMPDEST DUP1 ISZERO PUSH2 0xCE JUMPI DUP1 PUSH1 0xF EQ PUSH2 0xF4 JUMPI DUP1 PUSH4 0x6FDDE03 EQ PUSH2 0x114 JUMPI JUMPDEST STOP JUMPDEST PUSH2 0xE1 PUSH2 0xDC CALLDATASIZE PUSH1 0x4 PUSH2 0x28E8 JUMP JUMPDEST PUSH2 0x24E JUMP JUMPDEST PUSH1 0x40 MLOAD SWAP1 DUP2 MSTORE PUSH1 0x20 ADD JUMPDEST PUSH1 0x40 MLOAD DUP1 SWAP2 SUB SWAP1 RETURN JUMPDEST CALLVALUE DUP1 ISZERO PUSH2 0x100 JUMPI PUSH1 0x0 DUP1 REVERT JUMPDEST POP PUSH2 0xCC PUSH2 0x10F CALLDATASIZE PUSH1 0x4 PUSH2 0x29B2 JUMP JUMPDEST PUSH2 0x13A9 JUMP JUMPDEST CALLVALUE DUP1 ISZERO PUSH2 0x120 JUMPI PUSH1 0x0 DUP1 REVERT JUMPDEST POP PUSH2 0x15D PUSH1 0x40 MLOAD DUP1 PUSH1 0x40 ADD PUSH1 0x40 MSTORE DUP1 PUSH1 0x20 DUP2 MSTORE PUSH1 0x20 ADD PUSH32 0x68747470733A2F2F747769747465722E636F6D2F6D6576616C7068616C65616B DUP2 MSTORE POP DUP2 JUMP JUMPDEST PUSH1 0x40 MLOAD PUSH2 0xEB SWAP2 SWAP1 PUSH2 0x2AC6 JUMP JUMPDEST CALLVALUE DUP1 ISZERO PUSH2 0x176 JUMPI PUSH1 0x0 DUP1 REVERT JUMPDEST POP PUSH2 0xCC PUSH2 0x185 CALLDATASIZE PUSH1 0x4 PUSH2 0x2B4B JUMP JUMPDEST PUSH2 0x1798 JUMP JUMPDEST CALLVALUE DUP1 ISZERO PUSH2 0x196 JUMPI PUSH1 0x0 DUP1 REVERT JUMPDEST POP PUSH2 0xCC PUSH2 0x1A5 CALLDATASIZE PUSH1 0x4 PUSH2 0x2BB3 JUMP JUMPDEST PUSH2 0x17AE JUMP JUMPDEST CALLVALUE DUP1 ISZERO PUSH2 0x1B6 JUMPI PUSH1 0x0 DUP1 REVERT JUMPDEST POP PUSH2 0x1CA PUSH2 0x1C5 CALLDATASIZE PUSH1 0x4 PUSH2 0x2C76 JUMP JUMPDEST PUSH2 0x17BD JUMP JUMPDEST PUSH1 0x40 MLOAD SWAP1 ISZERO ISZERO DUP2 MSTORE PUSH1 0x20 ADD PUSH2 0xEB JUMP JUMPDEST PUSH2 0xCC PUSH2 0x1E8 CALLDATASIZE PUSH1 0x4 PUSH2 0x2D50 JUMP JUMPDEST PUSH2 0x17DE JUMP JUMPDEST CALLVALUE DUP1 ISZERO PUSH2 0x1F9 JUMPI PUSH1 0x0 DUP1 REVERT JUMPDEST POP PUSH2 0xCC PUSH2 0x208 CALLDATASIZE PUSH1 0x4 PUSH2 0x2DAF JUMP JUMPDEST PUSH2 0x1923 JUMP JUMPDEST PUSH2 0xCC PUSH2 0x21B CALLDATASIZE PUSH1 0x4 PUSH2 0x2E8F JUMP JUMPDEST PUSH2 0x1D99 JUMP JUMPDEST CALLVALUE DUP1 ISZERO PUSH2 0x22C JUMPI PUSH1 0x0 DUP1 REVERT JUMPDEST POP PUSH2 0xCC PUSH2 0x1A5 CALLDATASIZE PUSH1 0x4 PUSH2 0x2F13 JUMP JUMPDEST PUSH2 0xCC PUSH2 0x249 CALLDATASIZE PUSH1 0x4 PUSH2 0x2F4E JUMP JUMPDEST PUSH2 0x2550 JUMP JUMPDEST PUSH1 0x0 PUSH2 0x258 PUSH2 0x27FB JUMP JUMPDEST PUSH2 0x262 CALLVALUE SELFBALANCE PUSH2 0x2FBF JUMP JUMPDEST DUP2 MSTORE PUSH1 0x70 DUP6 AND ISZERO PUSH2 0x43E JUMPI PUSH1 0x10 DUP6 AND ISZERO PUSH2 0x308 JUMPI PUSH1 0x40 MLOAD PUSH32 0x70A0823100000000000000000000000000000000000000000000000000000000 DUP2 MSTORE ADDRESS PUSH1 0x4 DUP3 ADD MSTORE PUSH20 0xC02AAA39B223FE8D0A0E5C4F27EAD9083C756CC2 SWAP1 PUSH4 0x70A08231 SWAP1 PUSH1 0x24 ADD PUSH1 0x20 PUSH1 0x40 MLOAD DUP1 DUP4 SUB DUP2 DUP7 GAS STATICCALL ISZERO DUP1 ISZERO PUSH2 0x2DE JUMPI RETURNDATASIZE PUSH1 0x0 DUP1 RETURNDATACOPY RETURNDATASIZE PUSH1 0x0 REVERT JUMPDEST POP POP POP POP PUSH1 0x40 MLOAD RETURNDATASIZE PUSH1 0x1F NOT PUSH1 0x1F DUP3 ADD AND DUP3 ADD DUP1 PUSH1 0x40 MSTORE POP DUP2 ADD SWAP1 PUSH2 0x302 SWAP2 SWAP1 PUSH2 0x3007 JUMP JUMPDEST PUSH1 0x20 DUP3 ADD MSTORE JUMPDEST PUSH1 0x20 DUP6 AND ISZERO PUSH2 0x3A3 JUMPI PUSH1 0x40 MLOAD PUSH32 0x70A0823100000000000000000000000000000000000000000000000000000000 DUP2 MSTORE ADDRESS PUSH1 0x4 DUP3 ADD MSTORE PUSH20 0xA0B86991C6218B36C1D19D4A2E9EB0CE3606EB48 SWAP1 PUSH4 0x70A08231 SWAP1 PUSH1 0x24 ADD PUSH1 0x20 PUSH1 0x40 MLOAD DUP1 DUP4 SUB DUP2 DUP7 GAS STATICCALL ISZERO DUP1 ISZERO PUSH2 0x379 JUMPI RETURNDATASIZE PUSH1 0x0 DUP1 RETURNDATACOPY RETURNDATASIZE PUSH1 0x0 REVERT JUMPDEST POP POP POP POP PUSH1 0x40 MLOAD RETURNDATASIZE PUSH1 0x1F NOT PUSH1 0x1F DUP3 ADD AND DUP3 ADD DUP1 PUSH1 0x40 MSTORE POP DUP2 ADD SWAP1 PUSH2 0x39D SWAP2 SWAP1 PUSH2 0x3007 JUMP JUMPDEST PUSH1 0x40 DUP3 ADD MSTORE JUMPDEST PUSH1 0x40 DUP6 AND ISZERO PUSH2 0x43E JUMPI PUSH1 0x40 MLOAD PUSH32 0x70A0823100000000000000000000000000000000000000000000000000000000 DUP2 MSTORE ADDRESS PUSH1 0x4 DUP3 ADD MSTORE PUSH20 0x6B175474E89094C44DA98B954EEDEAC495271D0F SWAP1 PUSH4 0x70A08231 SWAP1 PUSH1 0x24 ADD PUSH1 0x20 PUSH1 0x40 MLOAD DUP1 DUP4 SUB DUP2 DUP7 GAS STATICCALL ISZERO DUP1 ISZERO PUSH2 0x414 JUMPI RETURNDATASIZE PUSH1 0x0 DUP1 RETURNDATACOPY RETURNDATASIZE PUSH1 0x0 REVERT JUMPDEST POP POP POP POP PUSH1 0x40 MLOAD RETURNDATASIZE PUSH1 0x1F NOT PUSH1 0x1F DUP3 ADD AND DUP3 ADD DUP1 PUSH1 0x40 MSTORE POP DUP2 ADD SWAP1 PUSH2 0x438 SWAP2 SWAP1 PUSH2 0x3007 JUMP JUMPDEST PUSH1 0x60 DUP3 ADD MSTORE JUMPDEST PUSH1 0x7 DUP6 AND ISZERO PUSH2 0x86E JUMPI PUSH1 0x1 DUP6 AND ISZERO PUSH2 0x5EF JUMPI PUSH1 0x40 MLOAD PUSH32 0x70A0823100000000000000000000000000000000000000000000000000000000 DUP2 MSTORE PUSH20 0x1E0447B19BB6ECFDAE1E4AE1694B0C3659614E4E PUSH1 0x4 DUP3 ADD MSTORE PUSH1 0x0 SWAP1 PUSH20 0xC02AAA39B223FE8D0A0E5C4F27EAD9083C756CC2 SWAP1 PUSH4 0x70A08231 SWAP1 PUSH1 0x24 ADD PUSH1 0x20 PUSH1 0x40 MLOAD DUP1 DUP4 SUB DUP2 DUP7 GAS STATICCALL ISZERO DUP1 ISZERO PUSH2 0x4CF JUMPI RETURNDATASIZE PUSH1 0x0 DUP1 RETURNDATACOPY RETURNDATASIZE PUSH1 0x0 REVERT JUMPDEST POP POP POP POP PUSH1 0x40 MLOAD RETURNDATASIZE PUSH1 0x1F NOT PUSH1 0x1F DUP3 ADD AND DUP3 ADD DUP1 PUSH1 0x40 MSTORE POP DUP2 ADD SWAP1 PUSH2 0x4F3 SWAP2 SWAP1 PUSH2 0x3007 JUMP JUMPDEST SWAP1 POP PUSH2 0x5E9 PUSH20 0xC02AAA39B223FE8D0A0E5C4F27EAD9083C756CC2 PUSH2 0x518 PUSH1 0x1 DUP5 PUSH2 0x2FBF JUMP JUMPDEST PUSH1 0x40 MLOAD PUSH32 0xDD62ED3E00000000000000000000000000000000000000000000000000000000 DUP2 MSTORE ADDRESS PUSH1 0x4 DUP3 ADD MSTORE PUSH20 0x1E0447B19BB6ECFDAE1E4AE1694B0C3659614E4E PUSH1 0x24 DUP3 ADD MSTORE DUP5 SWAP1 PUSH20 0xC02AAA39B223FE8D0A0E5C4F27EAD9083C756CC2 SWAP1 PUSH4 0xDD62ED3E SWAP1 PUSH1 0x44 ADD JUMPDEST PUSH1 0x20 PUSH1 0x40 MLOAD DUP1 DUP4 SUB DUP2 DUP7 GAS STATICCALL ISZERO DUP1 ISZERO PUSH2 0x59D JUMPI RETURNDATASIZE PUSH1 0x0 DUP1 RETURNDATACOPY RETURNDATASIZE PUSH1 0x0 REVERT JUMPDEST POP POP POP POP PUSH1 0x40 MLOAD RETURNDATASIZE PUSH1 0x1F NOT PUSH1 0x1F DUP3 ADD AND DUP3 ADD DUP1 PUSH1 0x40 MSTORE POP DUP2 ADD SWAP1 PUSH2 0x5C1 SWAP2 SWAP1 PUSH2 0x3007 JUMP JUMPDEST LT DUP9 DUP9 PUSH1 0x40 MLOAD PUSH1 0x20 ADD PUSH2 0x5D5 SWAP3 SWAP2 SWAP1 PUSH2 0x3020 JUMP JUMPDEST PUSH1 0x40 MLOAD PUSH1 0x20 DUP2 DUP4 SUB SUB DUP2 MSTORE SWAP1 PUSH1 0x40 MSTORE PUSH2 0x1923 JUMP JUMPDEST POP PUSH2 0x8AA JUMP JUMPDEST PUSH1 0x2 DUP6 AND ISZERO PUSH2 0x72C JUMPI PUSH1 0x40 MLOAD PUSH32 0x70A0823100000000000000000000000000000000000000000000000000000000 DUP2 MSTORE PUSH20 0x1E0447B19BB6ECFDAE1E4AE1694B0C3659614E4E PUSH1 0x4 DUP3 ADD MSTORE PUSH1 0x0 SWAP1 PUSH20 0xA0B86991C6218B36C1D19D4A2E9EB0CE3606EB48 SWAP1 PUSH4 0x70A08231 SWAP1 PUSH1 0x24 ADD PUSH1 0x20 PUSH1 0x40 MLOAD DUP1 DUP4 SUB DUP2 DUP7 GAS STATICCALL ISZERO DUP1 ISZERO PUSH2 0x677 JUMPI RETURNDATASIZE PUSH1 0x0 DUP1 RETURNDATACOPY RETURNDATASIZE PUSH1 0x0 REVERT JUMPDEST POP POP POP POP PUSH1 0x40 MLOAD RETURNDATASIZE PUSH1 0x1F NOT PUSH1 0x1F DUP3 ADD AND DUP3 ADD DUP1 PUSH1 0x40 MSTORE POP DUP2 ADD SWAP1 PUSH2 0x69B SWAP2 SWAP1 PUSH2 0x3007 JUMP JUMPDEST SWAP1 POP PUSH2 0x5E9 PUSH20 0xA0B86991C6218B36C1D19D4A2E9EB0CE3606EB48 PUSH2 0x6C0 PUSH1 0x1 DUP5 PUSH2 0x2FBF JUMP JUMPDEST PUSH1 0x40 MLOAD PUSH32 0xDD62ED3E00000000000000000000000000000000000000000000000000000000 DUP2 MSTORE ADDRESS PUSH1 0x4 DUP3 ADD MSTORE PUSH20 0x1E0447B19BB6ECFDAE1E4AE1694B0C3659614E4E PUSH1 0x24 DUP3 ADD MSTORE DUP5 SWAP1 PUSH20 0xA0B86991C6218B36C1D19D4A2E9EB0CE3606EB48 SWAP1 PUSH4 0xDD62ED3E SWAP1 PUSH1 0x44 ADD PUSH2 0x580 JUMP JUMPDEST PUSH1 0x4 DUP6 AND ISZERO PUSH2 0x869 JUMPI PUSH1 0x40 MLOAD PUSH32 0x70A0823100000000000000000000000000000000000000000000000000000000 DUP2 MSTORE PUSH20 0x1E0447B19BB6ECFDAE1E4AE1694B0C3659614E4E PUSH1 0x4 DUP3 ADD MSTORE PUSH1 0x0 SWAP1 PUSH20 0x6B175474E89094C44DA98B954EEDEAC495271D0F SWAP1 PUSH4 0x70A08231 SWAP1 PUSH1 0x24 ADD PUSH1 0x20 PUSH1 0x40 MLOAD DUP1 DUP4 SUB DUP2 DUP7 GAS STATICCALL ISZERO DUP1 ISZERO PUSH2 0x7B4 JUMPI RETURNDATASIZE PUSH1 0x0 DUP1 RETURNDATACOPY RETURNDATASIZE PUSH1 0x0 REVERT JUMPDEST POP POP POP POP PUSH1 0x40 MLOAD RETURNDATASIZE PUSH1 0x1F NOT PUSH1 0x1F DUP3 ADD AND DUP3 ADD DUP1 PUSH1 0x40 MSTORE POP DUP2 ADD SWAP1 PUSH2 0x7D8 SWAP2 SWAP1 PUSH2 0x3007 JUMP JUMPDEST SWAP1 POP PUSH2 0x5E9 PUSH20 0x6B175474E89094C44DA98B954EEDEAC495271D0F PUSH2 0x7FD PUSH1 0x1 DUP5 PUSH2 0x2FBF JUMP JUMPDEST PUSH1 0x40 MLOAD PUSH32 0xDD62ED3E00000000000000000000000000000000000000000000000000000000 DUP2 MSTORE ADDRESS PUSH1 0x4 DUP3 ADD MSTORE PUSH20 0x1E0447B19BB6ECFDAE1E4AE1694B0C3659614E4E PUSH1 0x24 DUP3 ADD MSTORE DUP5 SWAP1 PUSH20 0x6B175474E89094C44DA98B954EEDEAC495271D0F SWAP1 PUSH4 0xDD62ED3E SWAP1 PUSH1 0x44 ADD PUSH2 0x580 JUMP JUMPDEST PUSH2 0x8AA JUMP JUMPDEST PUSH2 0x8AA DUP5 DUP5 DUP1 DUP1 PUSH1 0x20 MUL PUSH1 0x20 ADD PUSH1 0x40 MLOAD SWAP1 DUP2 ADD PUSH1 0x40 MSTORE DUP1 SWAP4 SWAP3 SWAP2 SWAP1 DUP2 DUP2 MSTORE PUSH1 0x20 ADD DUP4 DUP4 PUSH1 0x20 MUL DUP1 DUP3 DUP5 CALLDATACOPY PUSH1 0x0 SWAP3 ADD SWAP2 SWAP1 SWAP2 MSTORE POP PUSH2 0x13A9 SWAP3 POP POP POP JUMP JUMPDEST PUSH1 0x8 DUP6 AND ISZERO PUSH2 0x9C5 JUMPI PUSH1 0x40 MLOAD PUSH32 0x70A0823100000000000000000000000000000000000000000000000000000000 DUP2 MSTORE ADDRESS PUSH1 0x4 DUP3 ADD MSTORE PUSH1 0x0 SWAP1 PUSH20 0xC02AAA39B223FE8D0A0E5C4F27EAD9083C756CC2 SWAP1 PUSH4 0x70A08231 SWAP1 PUSH1 0x24 ADD PUSH1 0x20 PUSH1 0x40 MLOAD DUP1 DUP4 SUB DUP2 DUP7 GAS STATICCALL ISZERO DUP1 ISZERO PUSH2 0x91E JUMPI RETURNDATASIZE PUSH1 0x0 DUP1 RETURNDATACOPY RETURNDATASIZE PUSH1 0x0 REVERT JUMPDEST POP POP POP POP PUSH1 0x40 MLOAD RETURNDATASIZE PUSH1 0x1F NOT PUSH1 0x1F DUP3 ADD AND DUP3 ADD DUP1 PUSH1 0x40 MSTORE POP DUP2 ADD SWAP1 PUSH2 0x942 SWAP2 SWAP1 PUSH2 0x3007 JUMP JUMPDEST SWAP1 POP PUSH1 0x1 DUP2 GT ISZERO PUSH2 0x9C3 JUMPI PUSH20 0xC02AAA39B223FE8D0A0E5C4F27EAD9083C756CC2 PUSH4 0x2E1A7D4D PUSH2 0x972 PUSH1 0x1 DUP5 PUSH2 0x2FBF JUMP JUMPDEST PUSH1 0x40 MLOAD DUP3 PUSH4 0xFFFFFFFF AND PUSH1 0xE0 SHL DUP2 MSTORE PUSH1 0x4 ADD PUSH2 0x990 SWAP2 DUP2 MSTORE PUSH1 0x20 ADD SWAP1 JUMP JUMPDEST PUSH1 0x0 PUSH1 0x40 MLOAD DUP1 DUP4 SUB DUP2 PUSH1 0x0 DUP8 DUP1 EXTCODESIZE ISZERO DUP1 ISZERO PUSH2 0x9AA JUMPI PUSH1 0x0 DUP1 REVERT JUMPDEST POP GAS CALL ISZERO DUP1 ISZERO PUSH2 0x9BE JUMPI RETURNDATASIZE PUSH1 0x0 DUP1 RETURNDATACOPY RETURNDATASIZE PUSH1 0x0 REVERT JUMPDEST POP POP POP POP JUMPDEST POP JUMPDEST DUP1 MLOAD PUSH2 0x9D1 SWAP1 SELFBALANCE PUSH2 0x3072 JUMP JUMPDEST SWAP2 POP PUSH1 0x70 DUP6 AND ISZERO PUSH2 0xD2F JUMPI PUSH1 0x10 DUP6 AND ISZERO PUSH2 0xA8D JUMPI PUSH1 0x20 DUP2 ADD MLOAD PUSH1 0x40 MLOAD PUSH32 0x70A0823100000000000000000000000000000000000000000000000000000000 DUP2 MSTORE ADDRESS PUSH1 0x4 DUP3 ADD MSTORE PUSH20 0xC02AAA39B223FE8D0A0E5C4F27EAD9083C756CC2 SWAP1 PUSH4 0x70A08231 SWAP1 PUSH1 0x24 ADD PUSH1 0x20 PUSH1 0x40 MLOAD DUP1 DUP4 SUB DUP2 DUP7 GAS STATICCALL ISZERO DUP1 ISZERO PUSH2 0xA52 JUMPI RETURNDATASIZE PUSH1 0x0 DUP1 RETURNDATACOPY RETURNDATASIZE PUSH1 0x0 REVERT JUMPDEST POP POP POP POP PUSH1 0x40 MLOAD RETURNDATASIZE PUSH1 0x1F NOT PUSH1 0x1F DUP3 ADD AND DUP3 ADD DUP1 PUSH1 0x40 MSTORE POP DUP2 ADD SWAP1 PUSH2 0xA76 SWAP2 SWAP1 PUSH2 0x3007 JUMP JUMPDEST PUSH2 0xA80 SWAP2 SWAP1 PUSH2 0x3072 JUMP JUMPDEST PUSH2 0xA8A SWAP1 DUP4 PUSH2 0x3099 JUMP JUMPDEST SWAP2 POP JUMPDEST PUSH1 0x20 DUP6 AND ISZERO PUSH2 0xBDE JUMPI PUSH8 0xDE0B6B3A7640000 PUSH20 0x986B5E1E1755E3C2440E960477F25201B0A8BBD4 PUSH20 0xFFFFFFFFFFFFFFFFFFFFFFFFFFFFFFFFFFFFFFFF AND PUSH4 0x50D25BCD PUSH1 0x40 MLOAD DUP2 PUSH4 0xFFFFFFFF AND PUSH1 0xE0 SHL DUP2 MSTORE PUSH1 0x4 ADD PUSH1 0x20 PUSH1 0x40 MLOAD DUP1 DUP4 SUB DUP2 DUP7 GAS STATICCALL ISZERO DUP1 ISZERO PUSH2 0xAFE JUMPI RETURNDATASIZE PUSH1 0x0 DUP1 RETURNDATACOPY RETURNDATASIZE PUSH1 0x0 REVERT JUMPDEST POP POP POP POP PUSH1 0x40 MLOAD RETURNDATASIZE PUSH1 0x1F NOT PUSH1 0x1F DUP3 ADD AND DUP3 ADD DUP1 PUSH1 0x40 MSTORE POP DUP2 ADD SWAP1 PUSH2 0xB22 SWAP2 SWAP1 PUSH2 0x3007 JUMP JUMPDEST PUSH1 0x40 DUP1 DUP5 ADD MLOAD SWAP1 MLOAD PUSH32 0x70A0823100000000000000000000000000000000000000000000000000000000 DUP2 MSTORE ADDRESS PUSH1 0x4 DUP3 ADD MSTORE PUSH20 0xA0B86991C6218B36C1D19D4A2E9EB0CE3606EB48 SWAP1 PUSH4 0x70A08231 SWAP1 PUSH1 0x24 ADD PUSH1 0x20 PUSH1 0x40 MLOAD DUP1 DUP4 SUB DUP2 DUP7 GAS STATICCALL ISZERO DUP1 ISZERO PUSH2 0xB8F JUMPI RETURNDATASIZE PUSH1 0x0 DUP1 RETURNDATACOPY RETURNDATASIZE PUSH1 0x0 REVERT JUMPDEST POP POP POP POP PUSH1 0x40 MLOAD RETURNDATASIZE PUSH1 0x1F NOT PUSH1 0x1F DUP3 ADD AND DUP3 ADD DUP1 PUSH1 0x40 MSTORE POP DUP2 ADD SWAP1 PUSH2 0xBB3 SWAP2 SWAP1 PUSH2 0x3007 JUMP JUMPDEST PUSH2 0xBBD SWAP2 SWAP1 PUSH2 0x3072 JUMP JUMPDEST PUSH2 0xBC7 SWAP2 SWAP1 PUSH2 0x30C1 JUMP JUMPDEST PUSH2 0xBD1 SWAP2 SWAP1 PUSH2 0x313C JUMP JUMPDEST PUSH2 0xBDB SWAP1 DUP4 PUSH2 0x3099 JUMP JUMPDEST SWAP2 POP JUMPDEST PUSH1 0x40 DUP6 AND ISZERO PUSH2 0xD2F JUMPI PUSH8 0xDE0B6B3A7640000 PUSH20 0x773616E4D11A78F511299002DA57A0A94577F1F4 PUSH20 0xFFFFFFFFFFFFFFFFFFFFFFFFFFFFFFFFFFFFFFFF AND PUSH4 0x50D25BCD PUSH1 0x40 MLOAD DUP2 PUSH4 0xFFFFFFFF AND PUSH1 0xE0 SHL DUP2 MSTORE PUSH1 0x4 ADD PUSH1 0x20 PUSH1 0x40 MLOAD DUP1 DUP4 SUB DUP2 DUP7 GAS STATICCALL ISZERO DUP1 ISZERO PUSH2 0xC4F JUMPI RETURNDATASIZE PUSH1 0x0 DUP1 RETURNDATACOPY RETURNDATASIZE PUSH1 0x0 REVERT JUMPDEST POP POP POP POP PUSH1 0x40 MLOAD RETURNDATASIZE PUSH1 0x1F NOT PUSH1 0x1F DUP3 ADD AND DUP3 ADD DUP1 PUSH1 0x40 MSTORE POP DUP2 ADD SWAP1 PUSH2 0xC73 SWAP2 SWAP1 PUSH2 0x3007 JUMP JUMPDEST PUSH1 0x60 DUP4 ADD MLOAD PUSH1 0x40 MLOAD PUSH32 0x70A0823100000000000000000000000000000000000000000000000000000000 DUP2 MSTORE ADDRESS PUSH1 0x4 DUP3 ADD MSTORE PUSH20 0x6B175474E89094C44DA98B954EEDEAC495271D0F SWAP1 PUSH4 0x70A08231 SWAP1 PUSH1 0x24 ADD PUSH1 0x20 PUSH1 0x40 MLOAD DUP1 DUP4 SUB DUP2 DUP7 GAS STATICCALL ISZERO DUP1 ISZERO PUSH2 0xCE0 JUMPI RETURNDATASIZE PUSH1 0x0 DUP1 RETURNDATACOPY RETURNDATASIZE PUSH1 0x0 REVERT JUMPDEST POP POP POP POP PUSH1 0x40 MLOAD RETURNDATASIZE PUSH1 0x1F NOT PUSH1 0x1F DUP3 ADD AND DUP3 ADD DUP1 PUSH1 0x40 MSTORE POP DUP2 ADD SWAP1 PUSH2 0xD04 SWAP2 SWAP1 PUSH2 0x3007 JUMP JUMPDEST PUSH2 0xD0E SWAP2 SWAP1 PUSH2 0x3072 JUMP JUMPDEST PUSH2 0xD18 SWAP2 SWAP1 PUSH2 0x30C1 JUMP JUMPDEST PUSH2 0xD22 SWAP2 SWAP1 PUSH2 0x313C JUMP JUMPDEST PUSH2 0xD2C SWAP1 DUP4 PUSH2 0x3099 JUMP JUMPDEST SWAP2 POP JUMPDEST SELFBALANCE PUSH1 0x1 DUP2 GT DUP1 ISZERO PUSH2 0xD40 JUMPI POP CALLER ADDRESS EQ ISZERO JUMPDEST ISZERO PUSH2 0xDB0 JUMPI CALLER PUSH2 0xD51 PUSH1 0x1 DUP4 PUSH2 0x2FBF JUMP JUMPDEST PUSH1 0x40 DUP1 MLOAD PUSH1 0x0 DUP2 MSTORE PUSH1 0x20 DUP2 ADD SWAP2 DUP3 SWAP1 MSTORE PUSH2 0xD6A SWAP2 PUSH2 0x31A4 JUMP JUMPDEST PUSH1 0x0 PUSH1 0x40 MLOAD DUP1 DUP4 SUB DUP2 DUP6 DUP8 GAS CALL SWAP3 POP POP POP RETURNDATASIZE DUP1 PUSH1 0x0 DUP2 EQ PUSH2 0xDA7 JUMPI PUSH1 0x40 MLOAD SWAP2 POP PUSH1 0x1F NOT PUSH1 0x3F RETURNDATASIZE ADD AND DUP3 ADD PUSH1 0x40 MSTORE RETURNDATASIZE DUP3 MSTORE RETURNDATASIZE PUSH1 0x0 PUSH1 0x20 DUP5 ADD RETURNDATACOPY PUSH2 0xDAC JUMP JUMPDEST PUSH1 0x60 SWAP2 POP JUMPDEST POP POP POP JUMPDEST PUSH2 0xF000 DUP7 AND ISZERO DUP1 ISZERO SWAP1 PUSH2 0xDC3 JUMPI POP CALLER ADDRESS EQ ISZERO JUMPDEST ISZERO PUSH2 0x13A0 JUMPI PUSH2 0x1000 DUP7 AND ISZERO PUSH2 0xF2A JUMPI PUSH1 0x40 MLOAD PUSH32 0x70A0823100000000000000000000000000000000000000000000000000000000 DUP2 MSTORE ADDRESS PUSH1 0x4 DUP3 ADD MSTORE PUSH1 0x0 SWAP1 PUSH20 0xC02AAA39B223FE8D0A0E5C4F27EAD9083C756CC2 SWAP1 PUSH4 0x70A08231 SWAP1 PUSH1 0x24 ADD PUSH1 0x20 PUSH1 0x40 MLOAD DUP1 DUP4 SUB DUP2 DUP7 GAS STATICCALL ISZERO DUP1 ISZERO PUSH2 0xE3D JUMPI RETURNDATASIZE PUSH1 0x0 DUP1 RETURNDATACOPY RETURNDATASIZE PUSH1 0x0 REVERT JUMPDEST POP POP POP POP PUSH1 0x40 MLOAD RETURNDATASIZE PUSH1 0x1F NOT PUSH1 0x1F DUP3 ADD AND DUP3 ADD DUP1 PUSH1 0x40 MSTORE POP DUP2 ADD SWAP1 PUSH2 0xE61 SWAP2 SWAP1 PUSH2 0x3007 JUMP JUMPDEST SWAP1 POP PUSH1 0x1 DUP2 GT ISZERO PUSH2 0xF28 JUMPI PUSH20 0xC02AAA39B223FE8D0A0E5C4F27EAD9083C756CC2 PUSH4 0xA9059CBB CALLER PUSH2 0xE92 PUSH1 0x1 DUP6 PUSH2 0x2FBF JUMP JUMPDEST PUSH1 0x40 MLOAD PUSH32 0xFFFFFFFF00000000000000000000000000000000000000000000000000000000 PUSH1 0xE0 DUP6 SWAP1 SHL AND DUP2 MSTORE PUSH20 0xFFFFFFFFFFFFFFFFFFFFFFFFFFFFFFFFFFFFFFFF SWAP1 SWAP3 AND PUSH1 0x4 DUP4 ADD MSTORE PUSH1 0x24 DUP3 ADD MSTORE PUSH1 0x44 ADD PUSH1 0x20 PUSH1 0x40 MLOAD DUP1 DUP4 SUB DUP2 PUSH1 0x0 DUP8 GAS CALL ISZERO DUP1 ISZERO PUSH2 0xF02 JUMPI RETURNDATASIZE PUSH1 0x0 DUP1 RETURNDATACOPY RETURNDATASIZE PUSH1 0x0 REVERT JUMPDEST POP POP POP POP PUSH1 0x40 MLOAD RETURNDATASIZE PUSH1 0x1F NOT PUSH1 0x1F DUP3 ADD AND DUP3 ADD DUP1 PUSH1 0x40 MSTORE POP DUP2 ADD SWAP1 PUSH2 0xF26 SWAP2 SWAP1 PUSH2 0x31C0 JUMP JUMPDEST POP JUMPDEST POP JUMPDEST PUSH2 0x2000 DUP7 AND ISZERO PUSH2 0x108C JUMPI PUSH1 0x40 MLOAD PUSH32 0x70A0823100000000000000000000000000000000000000000000000000000000 DUP2 MSTORE ADDRESS PUSH1 0x4 DUP3 ADD MSTORE PUSH1 0x0 SWAP1 PUSH20 0xA0B86991C6218B36C1D19D4A2E9EB0CE3606EB48 SWAP1 PUSH4 0x70A08231 SWAP1 PUSH1 0x24 ADD PUSH1 0x20 PUSH1 0x40 MLOAD DUP1 DUP4 SUB DUP2 DUP7 GAS STATICCALL ISZERO DUP1 ISZERO PUSH2 0xF9F JUMPI RETURNDATASIZE PUSH1 0x0 DUP1 RETURNDATACOPY RETURNDATASIZE PUSH1 0x0 REVERT JUMPDEST POP POP POP POP PUSH1 0x40 MLOAD RETURNDATASIZE PUSH1 0x1F NOT PUSH1 0x1F DUP3 ADD AND DUP3 ADD DUP1 PUSH1 0x40 MSTORE POP DUP2 ADD SWAP1 PUSH2 0xFC3 SWAP2 SWAP1 PUSH2 0x3007 JUMP JUMPDEST SWAP1 POP PUSH1 0x1 DUP2 GT ISZERO PUSH2 0x108A JUMPI PUSH20 0xA0B86991C6218B36C1D19D4A2E9EB0CE3606EB48 PUSH4 0xA9059CBB CALLER PUSH2 0xFF4 PUSH1 0x1 DUP6 PUSH2 0x2FBF JUMP JUMPDEST PUSH1 0x40 MLOAD PUSH32 0xFFFFFFFF00000000000000000000000000000000000000000000000000000000 PUSH1 0xE0 DUP6 SWAP1 SHL AND DUP2 MSTORE PUSH20 0xFFFFFFFFFFFFFFFFFFFFFFFFFFFFFFFFFFFFFFFF SWAP1 SWAP3 AND PUSH1 0x4 DUP4 ADD MSTORE PUSH1 0x24 DUP3 ADD MSTORE PUSH1 0x44 ADD PUSH1 0x20 PUSH1 0x40 MLOAD DUP1 DUP4 SUB DUP2 PUSH1 0x0 DUP8 GAS CALL ISZERO DUP1 ISZERO PUSH2 0x1064 JUMPI RETURNDATASIZE PUSH1 0x0 DUP1 RETURNDATACOPY RETURNDATASIZE PUSH1 0x0 REVERT JUMPDEST POP POP POP POP PUSH1 0x40 MLOAD RETURNDATASIZE PUSH1 0x1F NOT PUSH1 0x1F DUP3 ADD AND DUP3 ADD DUP1 PUSH1 0x40 MSTORE POP DUP2 ADD SWAP1 PUSH2 0x1088 SWAP2 SWAP1 PUSH2 0x31C0 JUMP JUMPDEST POP JUMPDEST POP JUMPDEST PUSH2 0x4000 DUP7 AND ISZERO PUSH2 0x11EE JUMPI PUSH1 0x40 MLOAD PUSH32 0x70A0823100000000000000000000000000000000000000000000000000000000 DUP2 MSTORE ADDRESS PUSH1 0x4 DUP3 ADD MSTORE PUSH1 0x0 SWAP1 PUSH20 0x6B175474E89094C44DA98B954EEDEAC495271D0F SWAP1 PUSH4 0x70A08231 SWAP1 PUSH1 0x24 ADD PUSH1 0x20 PUSH1 0x40 MLOAD DUP1 DUP4 SUB DUP2 DUP7 GAS STATICCALL ISZERO DUP1 ISZERO PUSH2 0x1101 JUMPI RETURNDATASIZE PUSH1 0x0 DUP1 RETURNDATACOPY RETURNDATASIZE PUSH1 0x0 REVERT JUMPDEST POP POP POP POP PUSH1 0x40 MLOAD RETURNDATASIZE PUSH1 0x1F NOT PUSH1 0x1F DUP3 ADD AND DUP3 ADD DUP1 PUSH1 0x40 MSTORE POP DUP2 ADD SWAP1 PUSH2 0x1125 SWAP2 SWAP1 PUSH2 0x3007 JUMP JUMPDEST SWAP1 POP PUSH1 0x1 DUP2 GT ISZERO PUSH2 0x11EC JUMPI PUSH20 0x6B175474E89094C44DA98B954EEDEAC495271D0F PUSH4 0xA9059CBB CALLER PUSH2 0x1156 PUSH1 0x1 DUP6 PUSH2 0x2FBF JUMP JUMPDEST PUSH1 0x40 MLOAD PUSH32 0xFFFFFFFF00000000000000000000000000000000000000000000000000000000 PUSH1 0xE0 DUP6 SWAP1 SHL AND DUP2 MSTORE PUSH20 0xFFFFFFFFFFFFFFFFFFFFFFFFFFFFFFFFFFFFFFFF SWAP1 SWAP3 AND PUSH1 0x4 DUP4 ADD MSTORE PUSH1 0x24 DUP3 ADD MSTORE PUSH1 0x44 ADD PUSH1 0x20 PUSH1 0x40 MLOAD DUP1 DUP4 SUB DUP2 PUSH1 0x0 DUP8 GAS CALL ISZERO DUP1 ISZERO PUSH2 0x11C6 JUMPI RETURNDATASIZE PUSH1 0x0 DUP1 RETURNDATACOPY RETURNDATASIZE PUSH1 0x0 REVERT JUMPDEST POP POP POP POP PUSH1 0x40 MLOAD RETURNDATASIZE PUSH1 0x1F NOT PUSH1 0x1F DUP3 ADD AND DUP3 ADD DUP1 PUSH1 0x40 MSTORE POP DUP2 ADD SWAP1 PUSH2 0x11EA SWAP2 SWAP1 PUSH2 0x31C0 JUMP JUMPDEST POP JUMPDEST POP JUMPDEST PUSH2 0x8000 DUP7 AND ISZERO PUSH2 0x13A0 JUMPI PUSH1 0x0 PUSH2 0x120F PUSH11 0x100000000000000000000 DUP9 PUSH2 0x31DD JUMP JUMPDEST SWAP1 POP PUSH20 0xFFFFFFFFFFFFFFFFFFFFFFFFFFFFFFFFFFFFFFFF DUP2 AND PUSH20 0xEEEEEEEEEEEEEEEEEEEEEEEEEEEEEEEEEEEEEEEE EQ PUSH2 0x139E JUMPI PUSH1 0x40 MLOAD PUSH32 0x70A0823100000000000000000000000000000000000000000000000000000000 DUP2 MSTORE ADDRESS PUSH1 0x4 DUP3 ADD MSTORE PUSH1 0x0 SWAP1 PUSH20 0xFFFFFFFFFFFFFFFFFFFFFFFFFFFFFFFFFFFFFFFF DUP4 AND SWAP1 PUSH4 0x70A08231 SWAP1 PUSH1 0x24 ADD PUSH1 0x20 PUSH1 0x40 MLOAD DUP1 DUP4 SUB DUP2 DUP7 GAS STATICCALL ISZERO DUP1 ISZERO PUSH2 0x12AF JUMPI RETURNDATASIZE PUSH1 0x0 DUP1 RETURNDATACOPY RETURNDATASIZE PUSH1 0x0 REVERT JUMPDEST POP POP POP POP PUSH1 0x40 MLOAD RETURNDATASIZE PUSH1 0x1F NOT PUSH1 0x1F DUP3 ADD AND DUP3 ADD DUP1 PUSH1 0x40 MSTORE POP DUP2 ADD SWAP1 PUSH2 0x12D3 SWAP2 SWAP1 PUSH2 0x3007 JUMP JUMPDEST SWAP1 POP PUSH1 0x1 DUP2 GT ISZERO PUSH2 0x139C JUMPI PUSH20 0xFFFFFFFFFFFFFFFFFFFFFFFFFFFFFFFFFFFFFFFF DUP3 AND PUSH4 0xA9059CBB CALLER PUSH2 0x1306 PUSH1 0x1 DUP6 PUSH2 0x2FBF JUMP JUMPDEST PUSH1 0x40 MLOAD PUSH32 0xFFFFFFFF00000000000000000000000000000000000000000000000000000000 PUSH1 0xE0 DUP6 SWAP1 SHL AND DUP2 MSTORE PUSH20 0xFFFFFFFFFFFFFFFFFFFFFFFFFFFFFFFFFFFFFFFF SWAP1 SWAP3 AND PUSH1 0x4 DUP4 ADD MSTORE PUSH1 0x24 DUP3 ADD MSTORE PUSH1 0x44 ADD PUSH1 0x20 PUSH1 0x40 MLOAD DUP1 DUP4 SUB DUP2 PUSH1 0x0 DUP8 GAS CALL ISZERO DUP1 ISZERO PUSH2 0x1376 JUMPI RETURNDATASIZE PUSH1 0x0 DUP1 RETURNDATACOPY RETURNDATASIZE PUSH1 0x0 REVERT JUMPDEST POP POP POP POP PUSH1 0x40 MLOAD RETURNDATASIZE PUSH1 0x1F NOT PUSH1 0x1F DUP3 ADD AND DUP3 ADD DUP1 PUSH1 0x40 MSTORE POP DUP2 ADD SWAP1 PUSH2 0x139A SWAP2 SWAP1 PUSH2 0x31C0 JUMP JUMPDEST POP JUMPDEST POP JUMPDEST POP JUMPDEST POP POP SWAP4 SWAP3 POP POP POP JUMP JUMPDEST PUSH1 0x0 PUSH2 0x13B4 DUP3 PUSH2 0x255F JUMP JUMPDEST SWAP1 POP DUP1 MLOAD PUSH1 0x0 EQ DUP2 SWAP1 PUSH2 0x13FD JUMPI PUSH1 0x40 MLOAD PUSH32 0x8C379A000000000000000000000000000000000000000000000000000000000 DUP2 MSTORE PUSH1 0x4 ADD PUSH2 0x13F4 SWAP2 SWAP1 PUSH2 0x2AC6 JUMP JUMPDEST PUSH1 0x40 MLOAD DUP1 SWAP2 SUB SWAP1 REVERT JUMPDEST POP PUSH1 0x0 PUSH1 0x4 PUSH1 0x2 PUSH1 0x1 OR OR DUP4 PUSH1 0x0 DUP2 MLOAD DUP2 LT PUSH2 0x141B JUMPI PUSH2 0x141B PUSH2 0x2FD8 JUMP JUMPDEST PUSH1 0x20 MUL PUSH1 0x20 ADD ADD MLOAD AND GT ISZERO PUSH2 0x1794 JUMPI PUSH1 0x0 DUP3 PUSH1 0x0 DUP2 MLOAD DUP2 LT PUSH2 0x143F JUMPI PUSH2 0x143F PUSH2 0x2FD8 JUMP JUMPDEST PUSH1 0x20 MUL PUSH1 0x20 ADD ADD MLOAD SWAP1 POP PUSH1 0x0 PUSH1 0x2 DUP3 AND GT ISZERO PUSH2 0x15EF JUMPI PUSH1 0x40 MLOAD PUSH32 0x70A0823100000000000000000000000000000000000000000000000000000000 DUP2 MSTORE ADDRESS PUSH1 0x4 DUP3 ADD MSTORE PUSH1 0x0 SWAP1 PUSH20 0xC02AAA39B223FE8D0A0E5C4F27EAD9083C756CC2 SWAP1 PUSH4 0x70A08231 SWAP1 PUSH1 0x24 ADD PUSH1 0x20 PUSH1 0x40 MLOAD DUP1 DUP4 SUB DUP2 DUP7 GAS STATICCALL ISZERO DUP1 ISZERO PUSH2 0x14C0 JUMPI RETURNDATASIZE PUSH1 0x0 DUP1 RETURNDATACOPY RETURNDATASIZE PUSH1 0x0 REVERT JUMPDEST POP POP POP POP PUSH1 0x40 MLOAD RETURNDATASIZE PUSH1 0x1F NOT PUSH1 0x1F DUP3 ADD AND DUP3 ADD DUP1 PUSH1 0x40 MSTORE POP DUP2 ADD SWAP1 PUSH2 0x14E4 SWAP2 SWAP1 PUSH2 0x3007 JUMP JUMPDEST SWAP1 POP PUSH1 0x1 DUP2 GT ISZERO PUSH2 0x1565 JUMPI PUSH20 0xC02AAA39B223FE8D0A0E5C4F27EAD9083C756CC2 PUSH4 0x2E1A7D4D PUSH2 0x1514 PUSH1 0x1 DUP5 PUSH2 0x2FBF JUMP JUMPDEST PUSH1 0x40 MLOAD DUP3 PUSH4 0xFFFFFFFF AND PUSH1 0xE0 SHL DUP2 MSTORE PUSH1 0x4 ADD PUSH2 0x1532 SWAP2 DUP2 MSTORE PUSH1 0x20 ADD SWAP1 JUMP JUMPDEST PUSH1 0x0 PUSH1 0x40 MLOAD DUP1 DUP4 SUB DUP2 PUSH1 0x0 DUP8 DUP1 EXTCODESIZE ISZERO DUP1 ISZERO PUSH2 0x154C JUMPI PUSH1 0x0 DUP1 REVERT JUMPDEST POP GAS CALL ISZERO DUP1 ISZERO PUSH2 0x1560 JUMPI RETURNDATASIZE PUSH1 0x0 DUP1 RETURNDATACOPY RETURNDATASIZE PUSH1 0x0 REVERT JUMPDEST POP POP POP POP JUMPDEST PUSH1 0x4 DUP3 AND ISZERO PUSH2 0x15E9 JUMPI COINBASE PUSH2 0x158A PUSH17 0x100000000000000000000000000000000 DUP5 PUSH2 0x31DD JUMP JUMPDEST PUSH1 0x40 DUP1 MLOAD PUSH1 0x0 DUP2 MSTORE PUSH1 0x20 DUP2 ADD SWAP2 DUP3 SWAP1 MSTORE PUSH2 0x15A3 SWAP2 PUSH2 0x31A4 JUMP JUMPDEST PUSH1 0x0 PUSH1 0x40 MLOAD DUP1 DUP4 SUB DUP2 DUP6 DUP8 GAS CALL SWAP3 POP POP POP RETURNDATASIZE DUP1 PUSH1 0x0 DUP2 EQ PUSH2 0x15E0 JUMPI PUSH1 0x40 MLOAD SWAP2 POP PUSH1 0x1F NOT PUSH1 0x3F RETURNDATASIZE ADD AND DUP3 ADD PUSH1 0x40 MSTORE RETURNDATASIZE DUP3 MSTORE RETURNDATASIZE PUSH1 0x0 PUSH1 0x20 DUP5 ADD RETURNDATACOPY PUSH2 0x15E5 JUMP JUMPDEST PUSH1 0x60 SWAP2 POP JUMPDEST POP POP POP JUMPDEST POP PUSH2 0x1792 JUMP JUMPDEST SELFBALANCE PUSH1 0x4 DUP3 AND ISZERO PUSH2 0x170E JUMPI PUSH1 0x0 PUSH2 0x1616 PUSH17 0x100000000000000000000000000000000 DUP5 PUSH2 0x31DD JUMP JUMPDEST SWAP1 POP DUP1 DUP3 LT ISZERO PUSH2 0x169D JUMPI PUSH20 0xC02AAA39B223FE8D0A0E5C4F27EAD9083C756CC2 PUSH4 0x2E1A7D4D PUSH2 0x1644 DUP5 DUP5 PUSH2 0x2FBF JUMP JUMPDEST PUSH1 0x40 MLOAD DUP3 PUSH4 0xFFFFFFFF AND PUSH1 0xE0 SHL DUP2 MSTORE PUSH1 0x4 ADD PUSH2 0x1662 SWAP2 DUP2 MSTORE PUSH1 0x20 ADD SWAP1 JUMP JUMPDEST PUSH1 0x0 PUSH1 0x40 MLOAD DUP1 DUP4 SUB DUP2 PUSH1 0x0 DUP8 DUP1 EXTCODESIZE ISZERO DUP1 ISZERO PUSH2 0x167C JUMPI PUSH1 0x0 DUP1 REVERT JUMPDEST POP GAS CALL ISZERO DUP1 ISZERO PUSH2 0x1690 JUMPI RETURNDATASIZE PUSH1 0x0 DUP1 RETURNDATACOPY RETURNDATASIZE PUSH1 0x0 REVERT JUMPDEST POP POP POP POP PUSH1 0x0 SWAP2 POP PUSH2 0x16AA JUMP JUMPDEST PUSH2 0x16A7 DUP2 DUP4 PUSH2 0x2FBF JUMP JUMPDEST SWAP2 POP JUMPDEST PUSH1 0x40 DUP1 MLOAD PUSH1 0x0 DUP2 MSTORE PUSH1 0x20 DUP2 ADD SWAP2 DUP3 SWAP1 MSTORE COINBASE SWAP2 DUP4 SWAP2 PUSH2 0x16C7 SWAP2 PUSH2 0x31A4 JUMP JUMPDEST PUSH1 0x0 PUSH1 0x40 MLOAD DUP1 DUP4 SUB DUP2 DUP6 DUP8 GAS CALL SWAP3 POP POP POP RETURNDATASIZE DUP1 PUSH1 0x0 DUP2 EQ PUSH2 0x1704 JUMPI PUSH1 0x40 MLOAD SWAP2 POP PUSH1 0x1F NOT PUSH1 0x3F RETURNDATASIZE ADD AND DUP3 ADD PUSH1 0x40 MSTORE RETURNDATASIZE DUP3 MSTORE RETURNDATASIZE PUSH1 0x0 PUSH1 0x20 DUP5 ADD RETURNDATACOPY PUSH2 0x1709 JUMP JUMPDEST PUSH1 0x60 SWAP2 POP JUMPDEST POP POP POP POP JUMPDEST PUSH1 0x0 PUSH1 0x1 DUP4 AND GT DUP1 ISZERO PUSH2 0x1721 JUMPI POP PUSH1 0x1 DUP2 GT JUMPDEST ISZERO PUSH2 0x1790 JUMPI PUSH20 0xC02AAA39B223FE8D0A0E5C4F27EAD9083C756CC2 PUSH4 0xD0E30DB0 PUSH2 0x174B PUSH1 0x1 DUP5 PUSH2 0x2FBF JUMP JUMPDEST PUSH1 0x40 MLOAD DUP3 PUSH4 0xFFFFFFFF AND PUSH1 0xE0 SHL DUP2 MSTORE PUSH1 0x4 ADD PUSH1 0x0 PUSH1 0x40 MLOAD DUP1 DUP4 SUB DUP2 DUP6 DUP9 DUP1 EXTCODESIZE ISZERO DUP1 ISZERO PUSH2 0x1776 JUMPI PUSH1 0x0 DUP1 REVERT JUMPDEST POP GAS CALL ISZERO DUP1 ISZERO PUSH2 0x178A JUMPI RETURNDATASIZE PUSH1 0x0 DUP1 RETURNDATACOPY RETURNDATASIZE PUSH1 0x0 REVERT JUMPDEST POP POP POP POP POP JUMPDEST POP JUMPDEST POP JUMPDEST POP POP JUMP JUMPDEST PUSH2 0x17A7 PUSH2 0x10F DUP3 DUP5 ADD DUP5 PUSH2 0x29B2 JUMP JUMPDEST POP POP POP POP POP JUMP JUMPDEST PUSH2 0x1790 PUSH2 0x10F DUP3 DUP5 ADD DUP5 PUSH2 0x29B2 JUMP JUMPDEST PUSH1 0x0 PUSH2 0x17CE PUSH2 0x10F DUP4 DUP6 ADD DUP6 PUSH2 0x29B2 JUMP JUMPDEST POP PUSH1 0x1 SWAP10 SWAP9 POP POP POP POP POP POP POP POP POP JUMP JUMPDEST PUSH2 0x17ED PUSH2 0x10F DUP3 DUP5 ADD DUP5 PUSH2 0x29B2 JUMP JUMPDEST PUSH20 0xFFFFFFFFFFFFFFFFFFFFFFFFFFFFFFFFFFFFFFFF DUP5 AND PUSH20 0xEEEEEEEEEEEEEEEEEEEEEEEEEEEEEEEEEEEEEEEE EQ PUSH2 0x18BB JUMPI PUSH1 0x40 MLOAD PUSH32 0xA9059CBB00000000000000000000000000000000000000000000000000000000 DUP2 MSTORE CALLER PUSH1 0x4 DUP3 ADD MSTORE PUSH1 0x24 DUP2 ADD DUP5 SWAP1 MSTORE PUSH20 0xFFFFFFFFFFFFFFFFFFFFFFFFFFFFFFFFFFFFFFFF DUP6 AND SWAP1 PUSH4 0xA9059CBB SWAP1 PUSH1 0x44 ADD PUSH1 0x20 PUSH1 0x40 MLOAD DUP1 DUP4 SUB DUP2 PUSH1 0x0 DUP8 GAS CALL ISZERO DUP1 ISZERO PUSH2 0x1891 JUMPI RETURNDATASIZE PUSH1 0x0 DUP1 RETURNDATACOPY RETURNDATASIZE PUSH1 0x0 REVERT JUMPDEST POP POP POP POP PUSH1 0x40 MLOAD RETURNDATASIZE PUSH1 0x1F NOT PUSH1 0x1F DUP3 ADD AND DUP3 ADD DUP1 PUSH1 0x40 MSTORE POP DUP2 ADD SWAP1 PUSH2 0x18B5 SWAP2 SWAP1 PUSH2 0x31C0 JUMP JUMPDEST POP PUSH2 0x1790 JUMP JUMPDEST PUSH1 0x40 DUP1 MLOAD PUSH1 0x0 DUP2 MSTORE PUSH1 0x20 DUP2 ADD SWAP2 DUP3 SWAP1 MSTORE CALLER SWAP2 DUP6 SWAP2 PUSH2 0x18D8 SWAP2 PUSH2 0x31A4 JUMP JUMPDEST PUSH1 0x0 PUSH1 0x40 MLOAD DUP1 DUP4 SUB DUP2 DUP6 DUP8 GAS CALL SWAP3 POP POP POP RETURNDATASIZE DUP1 PUSH1 0x0 DUP2 EQ PUSH2 0x1915 JUMPI PUSH1 0x40 MLOAD SWAP2 POP PUSH1 0x1F NOT PUSH1 0x3F RETURNDATASIZE ADD AND DUP3 ADD PUSH1 0x40 MSTORE RETURNDATASIZE DUP3 MSTORE RETURNDATASIZE PUSH1 0x0 PUSH1 0x20 DUP5 ADD RETURNDATACOPY PUSH2 0x191A JUMP JUMPDEST PUSH1 0x60 SWAP2 POP JUMPDEST POP POP POP POP POP POP POP JUMP JUMPDEST PUSH1 0x40 DUP1 MLOAD PUSH1 0x3 DUP1 DUP3 MSTORE PUSH1 0x80 DUP3 ADD SWAP1 SWAP3 MSTORE PUSH1 0x0 SWAP2 DUP2 PUSH1 0x20 ADD JUMPDEST PUSH2 0x1943 PUSH2 0x2819 JUMP JUMPDEST DUP2 MSTORE PUSH1 0x20 ADD SWAP1 PUSH1 0x1 SWAP1 SUB SWAP1 DUP2 PUSH2 0x193B JUMPI POP POP PUSH1 0x40 DUP1 MLOAD PUSH2 0x100 DUP2 ADD DUP3 MSTORE PUSH1 0x1 DUP2 MSTORE PUSH1 0x0 PUSH1 0x20 DUP1 DUP4 ADD DUP3 SWAP1 MSTORE DUP4 MLOAD PUSH1 0x80 DUP2 ADD DUP6 MSTORE DUP3 DUP2 MSTORE SWAP1 DUP2 ADD DUP3 SWAP1 MSTORE DUP1 DUP5 ADD SWAP2 SWAP1 SWAP2 MSTORE PUSH1 0x60 DUP1 DUP3 ADD DUP10 SWAP1 MSTORE SWAP3 DUP3 ADD MSTORE SWAP2 SWAP3 POP DUP2 ADD PUSH2 0x19A0 DUP8 PUSH2 0x2785 JUMP JUMPDEST DUP2 MSTORE PUSH1 0x20 ADD PUSH1 0x0 DUP2 MSTORE PUSH1 0x20 ADD ADDRESS PUSH20 0xFFFFFFFFFFFFFFFFFFFFFFFFFFFFFFFFFFFFFFFF AND DUP2 MSTORE PUSH1 0x20 ADD PUSH1 0x0 DUP2 MSTORE PUSH1 0x20 ADD PUSH1 0x40 MLOAD DUP1 PUSH1 0x20 ADD PUSH1 0x40 MSTORE DUP1 PUSH1 0x0 DUP2 MSTORE POP DUP2 MSTORE POP DUP2 PUSH1 0x0 DUP2 MLOAD DUP2 LT PUSH2 0x19F5 JUMPI PUSH2 0x19F5 PUSH2 0x2FD8 JUMP JUMPDEST PUSH1 0x20 SWAP1 DUP2 MUL SWAP2 SWAP1 SWAP2 ADD ADD MSTORE PUSH1 0x40 DUP1 MLOAD PUSH2 0x100 DUP2 ADD SWAP1 SWAP2 MSTORE DUP1 PUSH1 0x8 DUP2 MSTORE PUSH1 0x20 ADD PUSH1 0x0 DUP2 MSTORE PUSH1 0x20 ADD PUSH1 0x40 MLOAD DUP1 PUSH1 0x80 ADD PUSH1 0x40 MSTORE DUP1 PUSH1 0x0 ISZERO ISZERO DUP2 MSTORE PUSH1 0x20 ADD PUSH1 0x0 PUSH1 0x1 DUP2 GT ISZERO PUSH2 0x1A42 JUMPI PUSH2 0x1A42 PUSH2 0x31F1 JUMP JUMPDEST DUP2 MSTORE PUSH1 0x20 ADD PUSH1 0x0 DUP2 MSTORE PUSH1 0x20 ADD PUSH1 0x0 DUP2 MSTORE POP DUP2 MSTORE PUSH1 0x20 ADD PUSH1 0x0 DUP2 MSTORE PUSH1 0x20 ADD PUSH1 0x0 DUP2 MSTORE PUSH1 0x20 ADD ADDRESS PUSH20 0xFFFFFFFFFFFFFFFFFFFFFFFFFFFFFFFFFFFFFFFF AND DUP2 MSTORE PUSH1 0x20 ADD PUSH1 0x0 DUP2 MSTORE PUSH1 0x20 ADD DUP4 DUP2 MSTORE POP DUP2 PUSH1 0x1 DUP2 MLOAD DUP2 LT PUSH2 0x1AA0 JUMPI PUSH2 0x1AA0 PUSH2 0x2FD8 JUMP JUMPDEST PUSH1 0x20 SWAP1 DUP2 MUL SWAP2 SWAP1 SWAP2 ADD ADD MSTORE PUSH1 0x40 DUP1 MLOAD PUSH2 0x100 DUP2 ADD SWAP1 SWAP2 MSTORE DUP1 PUSH1 0x0 DUP2 MSTORE PUSH1 0x20 ADD PUSH1 0x0 DUP2 MSTORE PUSH1 0x20 ADD PUSH1 0x40 MLOAD DUP1 PUSH1 0x80 ADD PUSH1 0x40 MSTORE DUP1 PUSH1 0x1 ISZERO ISZERO DUP2 MSTORE PUSH1 0x20 ADD PUSH1 0x0 PUSH1 0x1 DUP2 GT ISZERO PUSH2 0x1AED JUMPI PUSH2 0x1AED PUSH2 0x31F1 JUMP JUMPDEST DUP2 MSTORE PUSH1 0x20 ADD PUSH1 0x0 DUP2 MSTORE PUSH1 0x20 ADD PUSH20 0xFFFFFFFFFFFFFFFFFFFFFFFFFFFFFFFFFFFFFFFF DUP10 AND PUSH20 0xC02AAA39B223FE8D0A0E5C4F27EAD9083C756CC2 EQ PUSH2 0x1B31 JUMPI PUSH1 0x2 PUSH2 0x1B34 JUMP JUMPDEST PUSH1 0x1 JUMPDEST PUSH2 0x1B41 SWAP1 PUSH1 0xFF AND DUP10 PUSH2 0x3220 JUMP JUMPDEST SWAP1 MSTORE DUP2 MSTORE PUSH1 0x20 ADD PUSH2 0x1B51 DUP8 PUSH2 0x2785 JUMP JUMPDEST DUP2 MSTORE PUSH1 0x20 ADD PUSH1 0x0 DUP2 MSTORE PUSH1 0x20 ADD ADDRESS PUSH20 0xFFFFFFFFFFFFFFFFFFFFFFFFFFFFFFFFFFFFFFFF AND DUP2 MSTORE PUSH1 0x20 ADD PUSH1 0x0 DUP2 MSTORE PUSH1 0x20 ADD PUSH1 0x40 MLOAD DUP1 PUSH1 0x20 ADD PUSH1 0x40 MSTORE DUP1 PUSH1 0x0 DUP2 MSTORE POP DUP2 MSTORE POP DUP2 PUSH1 0x2 DUP2 MLOAD DUP2 LT PUSH2 0x1BA6 JUMPI PUSH2 0x1BA6 PUSH2 0x2FD8 JUMP JUMPDEST PUSH1 0x20 SWAP1 DUP2 MUL SWAP2 SWAP1 SWAP2 ADD ADD MSTORE PUSH1 0x40 DUP1 MLOAD PUSH1 0x1 DUP1 DUP3 MSTORE DUP2 DUP4 ADD SWAP1 SWAP3 MSTORE PUSH1 0x0 SWAP2 DUP2 PUSH1 0x20 ADD JUMPDEST PUSH1 0x40 DUP1 MLOAD DUP1 DUP3 ADD SWAP1 SWAP2 MSTORE PUSH1 0x0 DUP1 DUP3 MSTORE PUSH1 0x20 DUP3 ADD MSTORE DUP2 MSTORE PUSH1 0x20 ADD SWAP1 PUSH1 0x1 SWAP1 SUB SWAP1 DUP2 PUSH2 0x1BC8 JUMPI SWAP1 POP POP SWAP1 POP PUSH1 0x40 MLOAD DUP1 PUSH1 0x40 ADD PUSH1 0x40 MSTORE DUP1 ADDRESS PUSH20 0xFFFFFFFFFFFFFFFFFFFFFFFFFFFFFFFFFFFFFFFF AND DUP2 MSTORE PUSH1 0x20 ADD PUSH1 0x1 DUP2 MSTORE POP DUP2 PUSH1 0x0 DUP2 MLOAD DUP2 LT PUSH2 0x1C30 JUMPI PUSH2 0x1C30 PUSH2 0x2FD8 JUMP JUMPDEST PUSH1 0x20 MUL PUSH1 0x20 ADD ADD DUP2 SWAP1 MSTORE POP DUP4 ISZERO PUSH2 0x1D0D JUMPI PUSH1 0x40 MLOAD PUSH32 0x95EA7B300000000000000000000000000000000000000000000000000000000 DUP2 MSTORE PUSH20 0x1E0447B19BB6ECFDAE1E4AE1694B0C3659614E4E PUSH1 0x4 DUP3 ADD MSTORE PUSH32 0xFFFFFFFFFFFFFFFFFFFFFFFFFFFFFFFFFFFFFFFFFFFFFFFFFFFFFFFFFFFFFFFF PUSH1 0x24 DUP3 ADD MSTORE PUSH20 0xFFFFFFFFFFFFFFFFFFFFFFFFFFFFFFFFFFFFFFFF DUP8 AND SWAP1 PUSH4 0x95EA7B3 SWAP1 PUSH1 0x44 ADD PUSH1 0x20 PUSH1 0x40 MLOAD DUP1 DUP4 SUB DUP2 PUSH1 0x0 DUP8 GAS CALL ISZERO DUP1 ISZERO PUSH2 0x1CE7 JUMPI RETURNDATASIZE PUSH1 0x0 DUP1 RETURNDATACOPY RETURNDATASIZE PUSH1 0x0 REVERT JUMPDEST POP POP POP POP PUSH1 0x40 MLOAD RETURNDATASIZE PUSH1 0x1F NOT PUSH1 0x1F DUP3 ADD AND DUP3 ADD DUP1 PUSH1 0x40 MSTORE POP DUP2 ADD SWAP1 PUSH2 0x1D0B SWAP2 SWAP1 PUSH2 0x31C0 JUMP JUMPDEST POP JUMPDEST PUSH1 0x40 MLOAD PUSH32 0xA67A6A4500000000000000000000000000000000000000000000000000000000 DUP2 MSTORE PUSH20 0x1E0447B19BB6ECFDAE1E4AE1694B0C3659614E4E SWAP1 PUSH4 0xA67A6A45 SWAP1 PUSH2 0x1D5F SWAP1 DUP5 SWAP1 DUP7 SWAP1 PUSH1 0x4 ADD PUSH2 0x327A JUMP JUMPDEST PUSH1 0x0 PUSH1 0x40 MLOAD DUP1 DUP4 SUB DUP2 PUSH1 0x0 DUP8 DUP1 EXTCODESIZE ISZERO DUP1 ISZERO PUSH2 0x1D79 JUMPI PUSH1 0x0 DUP1 REVERT JUMPDEST POP GAS CALL ISZERO DUP1 ISZERO PUSH2 0x1D8D JUMPI RETURNDATASIZE PUSH1 0x0 DUP1 RETURNDATACOPY RETURNDATASIZE PUSH1 0x0 REVERT JUMPDEST POP POP POP POP POP POP POP POP POP POP JUMP JUMPDEST PUSH2 0x1DA8 PUSH2 0x10F DUP3 DUP5 ADD DUP5 PUSH2 0x29B2 JUMP JUMPDEST SELFBALANCE PUSH1 0x1 DUP2 GT ISZERO PUSH2 0x1E2B JUMPI CALLER CALLVALUE DUP3 EQ PUSH2 0x1DCA JUMPI PUSH2 0x1DC5 PUSH1 0x1 DUP4 PUSH2 0x2FBF JUMP JUMPDEST PUSH2 0x1DCC JUMP JUMPDEST DUP2 JUMPDEST PUSH1 0x40 DUP1 MLOAD PUSH1 0x0 DUP2 MSTORE PUSH1 0x20 DUP2 ADD SWAP2 DUP3 SWAP1 MSTORE PUSH2 0x1DE5 SWAP2 PUSH2 0x31A4 JUMP JUMPDEST PUSH1 0x0 PUSH1 0x40 MLOAD DUP1 DUP4 SUB DUP2 DUP6 DUP8 GAS CALL SWAP3 POP POP POP RETURNDATASIZE DUP1 PUSH1 0x0 DUP2 EQ PUSH2 0x1E22 JUMPI PUSH1 0x40 MLOAD SWAP2 POP PUSH1 0x1F NOT PUSH1 0x3F RETURNDATASIZE ADD AND DUP3 ADD PUSH1 0x40 MSTORE RETURNDATASIZE DUP3 MSTORE RETURNDATASIZE PUSH1 0x0 PUSH1 0x20 DUP5 ADD RETURNDATACOPY PUSH2 0x1E27 JUMP JUMPDEST PUSH1 0x60 SWAP2 POP JUMPDEST POP POP POP JUMPDEST DUP8 ISZERO PUSH2 0x1F97 JUMPI PUSH1 0x40 MLOAD PUSH32 0x70A0823100000000000000000000000000000000000000000000000000000000 DUP2 MSTORE ADDRESS PUSH1 0x4 DUP3 ADD MSTORE PUSH1 0x0 SWAP1 PUSH20 0xC02AAA39B223FE8D0A0E5C4F27EAD9083C756CC2 SWAP1 PUSH4 0x70A08231 SWAP1 PUSH1 0x24 ADD PUSH1 0x20 PUSH1 0x40 MLOAD DUP1 DUP4 SUB DUP2 DUP7 GAS STATICCALL ISZERO DUP1 ISZERO PUSH2 0x1E9C JUMPI RETURNDATASIZE PUSH1 0x0 DUP1 RETURNDATACOPY RETURNDATASIZE PUSH1 0x0 REVERT JUMPDEST POP POP POP POP PUSH1 0x40 MLOAD RETURNDATASIZE PUSH1 0x1F NOT PUSH1 0x1F DUP3 ADD AND DUP3 ADD DUP1 PUSH1 0x40 MSTORE POP DUP2 ADD SWAP1 PUSH2 0x1EC0 SWAP2 SWAP1 PUSH2 0x3007 JUMP JUMPDEST SWAP1 POP PUSH1 0x1 DUP2 GT ISZERO PUSH2 0x1F95 JUMPI PUSH20 0xC02AAA39B223FE8D0A0E5C4F27EAD9083C756CC2 PUSH4 0xA9059CBB CALLER DUP4 DUP13 EQ PUSH2 0x1EFD JUMPI PUSH2 0x1EF8 PUSH1 0x1 DUP6 PUSH2 0x2FBF JUMP JUMPDEST PUSH2 0x1EFF JUMP JUMPDEST DUP4 JUMPDEST PUSH1 0x40 MLOAD PUSH32 0xFFFFFFFF00000000000000000000000000000000000000000000000000000000 PUSH1 0xE0 DUP6 SWAP1 SHL AND DUP2 MSTORE PUSH20 0xFFFFFFFFFFFFFFFFFFFFFFFFFFFFFFFFFFFFFFFF SWAP1 SWAP3 AND PUSH1 0x4 DUP4 ADD MSTORE PUSH1 0x24 DUP3 ADD MSTORE PUSH1 0x44 ADD PUSH1 0x20 PUSH1 0x40 MLOAD DUP1 DUP4 SUB DUP2 PUSH1 0x0 DUP8 GAS CALL ISZERO DUP1 ISZERO PUSH2 0x1F6F JUMPI RETURNDATASIZE PUSH1 0x0 DUP1 RETURNDATACOPY RETURNDATASIZE PUSH1 0x0 REVERT JUMPDEST POP POP POP POP PUSH1 0x40 MLOAD RETURNDATASIZE PUSH1 0x1F NOT PUSH1 0x1F DUP3 ADD AND DUP3 ADD DUP1 PUSH1 0x40 MSTORE POP DUP2 ADD SWAP1 PUSH2 0x1F93 SWAP2 SWAP1 PUSH2 0x31C0 JUMP JUMPDEST POP JUMPDEST POP JUMPDEST DUP7 ISZERO PUSH2 0x2103 JUMPI PUSH1 0x40 MLOAD PUSH32 0x70A0823100000000000000000000000000000000000000000000000000000000 DUP2 MSTORE ADDRESS PUSH1 0x4 DUP3 ADD MSTORE PUSH1 0x0 SWAP1 PUSH20 0x2260FAC5E5542A773AA44FBCFEDF7C193BC2C599 SWAP1 PUSH4 0x70A08231 SWAP1 PUSH1 0x24 ADD PUSH1 0x20 PUSH1 0x40 MLOAD DUP1 DUP4 SUB DUP2 DUP7 GAS STATICCALL ISZERO DUP1 ISZERO PUSH2 0x2008 JUMPI RETURNDATASIZE PUSH1 0x0 DUP1 RETURNDATACOPY RETURNDATASIZE PUSH1 0x0 REVERT JUMPDEST POP POP POP POP PUSH1 0x40 MLOAD RETURNDATASIZE PUSH1 0x1F NOT PUSH1 0x1F DUP3 ADD AND DUP3 ADD DUP1 PUSH1 0x40 MSTORE POP DUP2 ADD SWAP1 PUSH2 0x202C SWAP2 SWAP1 PUSH2 0x3007 JUMP JUMPDEST SWAP1 POP PUSH1 0x1 DUP2 GT ISZERO PUSH2 0x2101 JUMPI PUSH20 0x2260FAC5E5542A773AA44FBCFEDF7C193BC2C599 PUSH4 0xA9059CBB CALLER DUP4 DUP12 EQ PUSH2 0x2069 JUMPI PUSH2 0x2064 PUSH1 0x1 DUP6 PUSH2 0x2FBF JUMP JUMPDEST PUSH2 0x206B JUMP JUMPDEST DUP4 JUMPDEST PUSH1 0x40 MLOAD PUSH32 0xFFFFFFFF00000000000000000000000000000000000000000000000000000000 PUSH1 0xE0 DUP6 SWAP1 SHL AND DUP2 MSTORE PUSH20 0xFFFFFFFFFFFFFFFFFFFFFFFFFFFFFFFFFFFFFFFF SWAP1 SWAP3 AND PUSH1 0x4 DUP4 ADD MSTORE PUSH1 0x24 DUP3 ADD MSTORE PUSH1 0x44 ADD PUSH1 0x20 PUSH1 0x40 MLOAD DUP1 DUP4 SUB DUP2 PUSH1 0x0 DUP8 GAS CALL ISZERO DUP1 ISZERO PUSH2 0x20DB JUMPI RETURNDATASIZE PUSH1 0x0 DUP1 RETURNDATACOPY RETURNDATASIZE PUSH1 0x0 REVERT JUMPDEST POP POP POP POP PUSH1 0x40 MLOAD RETURNDATASIZE PUSH1 0x1F NOT PUSH1 0x1F DUP3 ADD AND DUP3 ADD DUP1 PUSH1 0x40 MSTORE POP DUP2 ADD SWAP1 PUSH2 0x20FF SWAP2 SWAP1 PUSH2 0x31C0 JUMP JUMPDEST POP JUMPDEST POP JUMPDEST DUP6 ISZERO PUSH2 0x226F JUMPI PUSH1 0x40 MLOAD PUSH32 0x70A0823100000000000000000000000000000000000000000000000000000000 DUP2 MSTORE ADDRESS PUSH1 0x4 DUP3 ADD MSTORE PUSH1 0x0 SWAP1 PUSH20 0x6B175474E89094C44DA98B954EEDEAC495271D0F SWAP1 PUSH4 0x70A08231 SWAP1 PUSH1 0x24 ADD PUSH1 0x20 PUSH1 0x40 MLOAD DUP1 DUP4 SUB DUP2 DUP7 GAS STATICCALL ISZERO DUP1 ISZERO PUSH2 0x2174 JUMPI RETURNDATASIZE PUSH1 0x0 DUP1 RETURNDATACOPY RETURNDATASIZE PUSH1 0x0 REVERT JUMPDEST POP POP POP POP PUSH1 0x40 MLOAD RETURNDATASIZE PUSH1 0x1F NOT PUSH1 0x1F DUP3 ADD AND DUP3 ADD DUP1 PUSH1 0x40 MSTORE POP DUP2 ADD SWAP1 PUSH2 0x2198 SWAP2 SWAP1 PUSH2 0x3007 JUMP JUMPDEST SWAP1 POP PUSH1 0x1 DUP2 GT ISZERO PUSH2 0x226D JUMPI PUSH20 0x6B175474E89094C44DA98B954EEDEAC495271D0F PUSH4 0xA9059CBB CALLER DUP4 DUP11 EQ PUSH2 0x21D5 JUMPI PUSH2 0x21D0 PUSH1 0x1 DUP6 PUSH2 0x2FBF JUMP JUMPDEST PUSH2 0x21D7 JUMP JUMPDEST DUP4 JUMPDEST PUSH1 0x40 MLOAD PUSH32 0xFFFFFFFF00000000000000000000000000000000000000000000000000000000 PUSH1 0xE0 DUP6 SWAP1 SHL AND DUP2 MSTORE PUSH20 0xFFFFFFFFFFFFFFFFFFFFFFFFFFFFFFFFFFFFFFFF SWAP1 SWAP3 AND PUSH1 0x4 DUP4 ADD MSTORE PUSH1 0x24 DUP3 ADD MSTORE PUSH1 0x44 ADD PUSH1 0x20 PUSH1 0x40 MLOAD DUP1 DUP4 SUB DUP2 PUSH1 0x0 DUP8 GAS CALL ISZERO DUP1 ISZERO PUSH2 0x2247 JUMPI RETURNDATASIZE PUSH1 0x0 DUP1 RETURNDATACOPY RETURNDATASIZE PUSH1 0x0 REVERT JUMPDEST POP POP POP POP PUSH1 0x40 MLOAD RETURNDATASIZE PUSH1 0x1F NOT PUSH1 0x1F DUP3 ADD AND DUP3 ADD DUP1 PUSH1 0x40 MSTORE POP DUP2 ADD SWAP1 PUSH2 0x226B SWAP2 SWAP1 PUSH2 0x31C0 JUMP JUMPDEST POP JUMPDEST POP JUMPDEST DUP5 ISZERO PUSH2 0x23DB JUMPI PUSH1 0x40 MLOAD PUSH32 0x70A0823100000000000000000000000000000000000000000000000000000000 DUP2 MSTORE ADDRESS PUSH1 0x4 DUP3 ADD MSTORE PUSH1 0x0 SWAP1 PUSH20 0xA0B86991C6218B36C1D19D4A2E9EB0CE3606EB48 SWAP1 PUSH4 0x70A08231 SWAP1 PUSH1 0x24 ADD PUSH1 0x20 PUSH1 0x40 MLOAD DUP1 DUP4 SUB DUP2 DUP7 GAS STATICCALL ISZERO DUP1 ISZERO PUSH2 0x22E0 JUMPI RETURNDATASIZE PUSH1 0x0 DUP1 RETURNDATACOPY RETURNDATASIZE PUSH1 0x0 REVERT JUMPDEST POP POP POP POP PUSH1 0x40 MLOAD RETURNDATASIZE PUSH1 0x1F NOT PUSH1 0x1F DUP3 ADD AND DUP3 ADD DUP1 PUSH1 0x40 MSTORE POP DUP2 ADD SWAP1 PUSH2 0x2304 SWAP2 SWAP1 PUSH2 0x3007 JUMP JUMPDEST SWAP1 POP PUSH1 0x1 DUP2 GT ISZERO PUSH2 0x23D9 JUMPI PUSH20 0xA0B86991C6218B36C1D19D4A2E9EB0CE3606EB48 PUSH4 0xA9059CBB CALLER DUP4 DUP10 EQ PUSH2 0x2341 JUMPI PUSH2 0x233C PUSH1 0x1 DUP6 PUSH2 0x2FBF JUMP JUMPDEST PUSH2 0x2343 JUMP JUMPDEST DUP4 JUMPDEST PUSH1 0x40 MLOAD PUSH32 0xFFFFFFFF00000000000000000000000000000000000000000000000000000000 PUSH1 0xE0 DUP6 SWAP1 SHL AND DUP2 MSTORE PUSH20 0xFFFFFFFFFFFFFFFFFFFFFFFFFFFFFFFFFFFFFFFF SWAP1 SWAP3 AND PUSH1 0x4 DUP4 ADD MSTORE PUSH1 0x24 DUP3 ADD MSTORE PUSH1 0x44 ADD PUSH1 0x20 PUSH1 0x40 MLOAD DUP1 DUP4 SUB DUP2 PUSH1 0x0 DUP8 GAS CALL ISZERO DUP1 ISZERO PUSH2 0x23B3 JUMPI RETURNDATASIZE PUSH1 0x0 DUP1 RETURNDATACOPY RETURNDATASIZE PUSH1 0x0 REVERT JUMPDEST POP POP POP POP PUSH1 0x40 MLOAD RETURNDATASIZE PUSH1 0x1F NOT PUSH1 0x1F DUP3 ADD AND DUP3 ADD DUP1 PUSH1 0x40 MSTORE POP DUP2 ADD SWAP1 PUSH2 0x23D7 SWAP2 SWAP1 PUSH2 0x31C0 JUMP JUMPDEST POP JUMPDEST POP JUMPDEST DUP4 ISZERO PUSH2 0x178A JUMPI PUSH1 0x40 MLOAD PUSH32 0x70A0823100000000000000000000000000000000000000000000000000000000 DUP2 MSTORE ADDRESS PUSH1 0x4 DUP3 ADD MSTORE PUSH1 0x0 SWAP1 PUSH20 0xDAC17F958D2EE523A2206206994597C13D831EC7 SWAP1 PUSH4 0x70A08231 SWAP1 PUSH1 0x24 ADD PUSH1 0x20 PUSH1 0x40 MLOAD DUP1 DUP4 SUB DUP2 DUP7 GAS STATICCALL ISZERO DUP1 ISZERO PUSH2 0x244C JUMPI RETURNDATASIZE PUSH1 0x0 DUP1 RETURNDATACOPY RETURNDATASIZE PUSH1 0x0 REVERT JUMPDEST POP POP POP POP PUSH1 0x40 MLOAD RETURNDATASIZE PUSH1 0x1F NOT PUSH1 0x1F DUP3 ADD AND DUP3 ADD DUP1 PUSH1 0x40 MSTORE POP DUP2 ADD SWAP1 PUSH2 0x2470 SWAP2 SWAP1 PUSH2 0x3007 JUMP JUMPDEST SWAP1 POP PUSH1 0x1 DUP2 GT ISZERO PUSH2 0x1D8D JUMPI PUSH20 0xDAC17F958D2EE523A2206206994597C13D831EC7 PUSH4 0xA9059CBB CALLER DUP4 DUP9 EQ PUSH2 0x24AD JUMPI PUSH2 0x24A8 PUSH1 0x1 DUP6 PUSH2 0x2FBF JUMP JUMPDEST PUSH2 0x24AF JUMP JUMPDEST DUP4 JUMPDEST PUSH1 0x40 MLOAD PUSH32 0xFFFFFFFF00000000000000000000000000000000000000000000000000000000 PUSH1 0xE0 DUP6 SWAP1 SHL AND DUP2 MSTORE PUSH20 0xFFFFFFFFFFFFFFFFFFFFFFFFFFFFFFFFFFFFFFFF SWAP1 SWAP3 AND PUSH1 0x4 DUP4 ADD MSTORE PUSH1 0x24 DUP3 ADD MSTORE PUSH1 0x44 ADD PUSH1 0x20 PUSH1 0x40 MLOAD DUP1 DUP4 SUB DUP2 PUSH1 0x0 DUP8 GAS CALL ISZERO DUP1 ISZERO PUSH2 0x251F JUMPI RETURNDATASIZE PUSH1 0x0 DUP1 RETURNDATACOPY RETURNDATASIZE PUSH1 0x0 REVERT JUMPDEST POP POP POP POP PUSH1 0x40 MLOAD RETURNDATASIZE PUSH1 0x1F NOT PUSH1 0x1F DUP3 ADD AND DUP3 ADD DUP1 PUSH1 0x40 MSTORE POP DUP2 ADD SWAP1 PUSH2 0x2543 SWAP2 SWAP1 PUSH2 0x31C0 JUMP JUMPDEST POP POP POP POP POP POP POP POP POP POP POP JUMP JUMPDEST PUSH2 0x1794 PUSH2 0x10F DUP3 DUP5 ADD DUP5 PUSH2 0x29B2 JUMP JUMPDEST PUSH1 0x60 PUSH1 0x1 JUMPDEST DUP3 MLOAD DUP2 LT ISZERO PUSH2 0x276F JUMPI PUSH1 0x20 PUSH1 0x1 DUP3 ADD MUL DUP4 ADD MLOAD PUSH2 0xFFFF PUSH28 0x1000000000000000000000000000000000000000000000000000000 DUP3 DIV AND PUSH1 0x40 MLOAD PUSH6 0x10000000000 PUSH27 0xFFFFFFFF0000000000000000000000000000000000000000000000 DUP5 AND MUL DUP1 PUSH1 0x0 DUP2 EQ PUSH2 0x2607 JUMPI DUP2 DUP4 MSTORE PUSH1 0x4 PUSH1 0x20 DUP6 MUL ADD SWAP4 POP PUSH1 0x4 PUSH1 0x3 DUP8 ADD PUSH1 0x20 MUL SUB DUP9 ADD SWAP2 POP PUSH1 0x4 JUMPDEST DUP5 DUP2 LT ISZERO PUSH2 0x2601 JUMPI DUP3 DUP2 ADD MLOAD DUP5 DUP3 ADD MSTORE PUSH1 0x20 ADD PUSH2 0x25E9 JUMP JUMPDEST POP PUSH2 0x2633 JUMP JUMPDEST PUSH1 0x20 SWAP4 DUP5 MUL SWAP4 PUSH1 0x3 DUP8 ADD MUL DUP9 ADD SWAP2 POP PUSH1 0x0 JUMPDEST DUP5 DUP2 LT ISZERO PUSH2 0x2631 JUMPI DUP3 DUP2 ADD MLOAD DUP5 DUP3 ADD MSTORE PUSH1 0x20 ADD PUSH2 0x2619 JUMP JUMPDEST POP JUMPDEST POP PUSH1 0x20 DUP4 ADD DUP3 ADD PUSH1 0x40 MSTORE PUSH20 0xFFFFFFFFFFFFFFFFFFFFFFFFFFFFFFFFFFFFFFFF DUP5 AND PUSH32 0xF000000000000000000000000000000000000000000000000000000000000000 DUP6 AND PUSH32 0x1000000000000000000000000000000000000000000000000000000000000000 DUP2 EQ PUSH2 0x26D3 JUMPI PUSH1 0x20 DUP5 DUP7 DUP7 PUSH1 0x20 PUSH1 0x2 DUP13 ADD MUL DUP14 ADD MLOAD DUP7 PUSH3 0xFFFFFF PUSH21 0x10000000000000000000000000000000000000000 DUP14 DIV AND CALL SWAP3 POP PUSH2 0x26FA JUMP JUMPDEST PUSH1 0x20 DUP5 DUP7 DUP7 DUP6 PUSH3 0xFFFFFF PUSH21 0x10000000000000000000000000000000000000000 DUP13 DIV AND DELEGATECALL SWAP3 POP JUMPDEST POP DUP3 MSTORE DUP1 DUP1 PUSH2 0x2708 JUMPI PUSH1 0x20 DUP4 RETURN JUMPDEST POP POP PUSH30 0x10000000000000000000000000000000000000000000000000000000000 DUP4 DIV PUSH1 0xFF AND DUP1 ISZERO PUSH2 0x273E JUMPI DUP2 MLOAD PUSH1 0x20 DUP3 MUL DUP9 ADD MSTORE JUMPDEST POP PUSH1 0x40 MSTORE POP PUSH28 0x1000000000000000000000000000000000000000000000000000000 SWAP1 DIV PUSH2 0xFFFF AND ADD PUSH1 0x2 ADD PUSH2 0x2564 JUMP JUMPDEST POP POP PUSH1 0x40 DUP1 MLOAD PUSH1 0x0 DUP2 MSTORE PUSH1 0x20 DUP2 ADD SWAP1 SWAP2 MSTORE SWAP2 SWAP1 POP JUMP JUMPDEST PUSH1 0x0 DUP2 PUSH20 0xC02AAA39B223FE8D0A0E5C4F27EAD9083C756CC2 DUP2 EQ PUSH2 0x27DE JUMPI PUSH20 0xA0B86991C6218B36C1D19D4A2E9EB0CE3606EB48 DUP2 EQ PUSH2 0x27E7 JUMPI PUSH20 0x6B175474E89094C44DA98B954EEDEAC495271D0F DUP2 EQ PUSH2 0x27F0 JUMPI PUSH1 0x0 DUP1 REVERT JUMPDEST PUSH1 0x0 SWAP2 POP PUSH2 0x27F5 JUMP JUMPDEST PUSH1 0x2 SWAP2 POP PUSH2 0x27F5 JUMP JUMPDEST PUSH1 0x3 SWAP2 POP JUMPDEST POP SWAP2 SWAP1 POP JUMP JUMPDEST PUSH1 0x40 MLOAD DUP1 PUSH1 0x80 ADD PUSH1 0x40 MSTORE DUP1 PUSH1 0x4 SWAP1 PUSH1 0x20 DUP3 MUL DUP1 CALLDATASIZE DUP4 CALLDATACOPY POP SWAP2 SWAP3 SWAP2 POP POP JUMP JUMPDEST PUSH1 0x40 DUP1 MLOAD PUSH2 0x100 DUP2 ADD DUP3 MSTORE PUSH1 0x0 DUP1 DUP3 MSTORE PUSH1 0x20 DUP3 ADD MSTORE SWAP1 DUP2 ADD PUSH2 0x285D PUSH1 0x40 DUP1 MLOAD PUSH1 0x80 DUP2 ADD SWAP1 SWAP2 MSTORE PUSH1 0x0 DUP1 DUP3 MSTORE PUSH1 0x20 DUP3 ADD SWAP1 DUP2 MSTORE PUSH1 0x20 ADD PUSH1 0x0 DUP2 MSTORE PUSH1 0x20 ADD PUSH1 0x0 DUP2 MSTORE POP SWAP1 JUMP JUMPDEST DUP2 MSTORE PUSH1 0x20 ADD PUSH1 0x0 DUP2 MSTORE PUSH1 0x20 ADD PUSH1 0x0 DUP2 MSTORE PUSH1 0x20 ADD PUSH1 0x0 PUSH20 0xFFFFFFFFFFFFFFFFFFFFFFFFFFFFFFFFFFFFFFFF AND DUP2 MSTORE PUSH1 0x20 ADD PUSH1 0x0 DUP2 MSTORE PUSH1 0x20 ADD PUSH1 0x60 DUP2 MSTORE POP SWAP1 JUMP JUMPDEST PUSH1 0x0 DUP1 DUP4 PUSH1 0x1F DUP5 ADD SLT PUSH2 0x28AE JUMPI PUSH1 0x0 DUP1 REVERT JUMPDEST POP DUP2 CALLDATALOAD PUSH8 0xFFFFFFFFFFFFFFFF DUP2 GT ISZERO PUSH2 0x28C6 JUMPI PUSH1 0x0 DUP1 REVERT JUMPDEST PUSH1 0x20 DUP4 ADD SWAP2 POP DUP4 PUSH1 0x20 DUP3 PUSH1 0x5 SHL DUP6 ADD ADD GT ISZERO PUSH2 0x28E1 JUMPI PUSH1 0x0 DUP1 REVERT JUMPDEST SWAP3 POP SWAP3 SWAP1 POP JUMP JUMPDEST PUSH1 0x0 DUP1 PUSH1 0x0 PUSH1 0x40 DUP5 DUP7 SUB SLT ISZERO PUSH2 0x28FD JUMPI PUSH1 0x0 DUP1 REVERT JUMPDEST DUP4 CALLDATALOAD SWAP3 POP PUSH1 0x20 DUP5 ADD CALLDATALOAD PUSH8 0xFFFFFFFFFFFFFFFF DUP2 GT ISZERO PUSH2 0x291B JUMPI PUSH1 0x0 DUP1 REVERT JUMPDEST PUSH2 0x2927 DUP7 DUP3 DUP8 ADD PUSH2 0x289C JUMP JUMPDEST SWAP5 SWAP8 SWAP1 SWAP7 POP SWAP4 SWAP5 POP POP POP POP JUMP JUMPDEST PUSH32 0x4E487B7100000000000000000000000000000000000000000000000000000000 PUSH1 0x0 MSTORE PUSH1 0x41 PUSH1 0x4 MSTORE PUSH1 0x24 PUSH1 0x0 REVERT JUMPDEST PUSH1 0x40 MLOAD PUSH1 0x1F DUP3 ADD PUSH32 0xFFFFFFFFFFFFFFFFFFFFFFFFFFFFFFFFFFFFFFFFFFFFFFFFFFFFFFFFFFFFFFE0 AND DUP2 ADD PUSH8 0xFFFFFFFFFFFFFFFF DUP2 GT DUP3 DUP3 LT OR ISZERO PUSH2 0x29AA JUMPI PUSH2 0x29AA PUSH2 0x2934 JUMP JUMPDEST PUSH1 0x40 MSTORE SWAP2 SWAP1 POP JUMP JUMPDEST PUSH1 0x0 PUSH1 0x20 DUP1 DUP4 DUP6 SUB SLT ISZERO PUSH2 0x29C5 JUMPI PUSH1 0x0 DUP1 REVERT JUMPDEST DUP3 CALLDATALOAD PUSH8 0xFFFFFFFFFFFFFFFF DUP1 DUP3 GT ISZERO PUSH2 0x29DD JUMPI PUSH1 0x0 DUP1 REVERT JUMPDEST DUP2 DUP6 ADD SWAP2 POP DUP6 PUSH1 0x1F DUP4 ADD SLT PUSH2 0x29F1 JUMPI PUSH1 0x0 DUP1 REVERT JUMPDEST DUP2 CALLDATALOAD DUP2 DUP2 GT ISZERO PUSH2 0x2A03 JUMPI PUSH2 0x2A03 PUSH2 0x2934 JUMP JUMPDEST DUP1 PUSH1 0x5 SHL SWAP2 POP PUSH2 0x2A14 DUP5 DUP4 ADD PUSH2 0x2963 JUMP JUMPDEST DUP2 DUP2 MSTORE SWAP2 DUP4 ADD DUP5 ADD SWAP2 DUP5 DUP2 ADD SWAP1 DUP9 DUP5 GT ISZERO PUSH2 0x2A2E JUMPI PUSH1 0x0 DUP1 REVERT JUMPDEST SWAP4 DUP6 ADD SWAP4 JUMPDEST DUP4 DUP6 LT ISZERO PUSH2 0x2A4C JUMPI DUP5 CALLDATALOAD DUP3 MSTORE SWAP4 DUP6 ADD SWAP4 SWAP1 DUP6 ADD SWAP1 PUSH2 0x2A33 JUMP JUMPDEST SWAP9 SWAP8 POP POP POP POP POP POP POP POP JUMP JUMPDEST PUSH1 0x0 JUMPDEST DUP4 DUP2 LT ISZERO PUSH2 0x2A73 JUMPI DUP2 DUP2 ADD MLOAD DUP4 DUP3 ADD MSTORE PUSH1 0x20 ADD PUSH2 0x2A5B JUMP JUMPDEST POP POP PUSH1 0x0 SWAP2 ADD MSTORE JUMP JUMPDEST PUSH1 0x0 DUP2 MLOAD DUP1 DUP5 MSTORE PUSH2 0x2A94 DUP2 PUSH1 0x20 DUP7 ADD PUSH1 0x20 DUP7 ADD PUSH2 0x2A58 JUMP JUMPDEST PUSH1 0x1F ADD PUSH32 0xFFFFFFFFFFFFFFFFFFFFFFFFFFFFFFFFFFFFFFFFFFFFFFFFFFFFFFFFFFFFFFE0 AND SWAP3 SWAP1 SWAP3 ADD PUSH1 0x20 ADD SWAP3 SWAP2 POP POP JUMP JUMPDEST PUSH1 0x20 DUP2 MSTORE PUSH1 0x0 PUSH2 0x2AD9 PUSH1 0x20 DUP4 ADD DUP5 PUSH2 0x2A7C JUMP JUMPDEST SWAP4 SWAP3 POP POP POP JUMP JUMPDEST DUP1 CALLDATALOAD PUSH20 0xFFFFFFFFFFFFFFFFFFFFFFFFFFFFFFFFFFFFFFFF DUP2 AND DUP2 EQ PUSH2 0x2B04 JUMPI PUSH1 0x0 DUP1 REVERT JUMPDEST SWAP2 SWAP1 POP JUMP JUMPDEST PUSH1 0x0 DUP1 DUP4 PUSH1 0x1F DUP5 ADD SLT PUSH2 0x2B1B JUMPI PUSH1 0x0 DUP1 REVERT JUMPDEST POP DUP2 CALLDATALOAD PUSH8 0xFFFFFFFFFFFFFFFF DUP2 GT ISZERO PUSH2 0x2B33 JUMPI PUSH1 0x0 DUP1 REVERT JUMPDEST PUSH1 0x20 DUP4 ADD SWAP2 POP DUP4 PUSH1 0x20 DUP3 DUP6 ADD ADD GT ISZERO PUSH2 0x28E1 JUMPI PUSH1 0x0 DUP1 REVERT JUMPDEST PUSH1 0x0 DUP1 PUSH1 0x0 DUP1 PUSH1 0x0 PUSH1 0x80 DUP7 DUP9 SUB SLT ISZERO PUSH2 0x2B63 JUMPI PUSH1 0x0 DUP1 REVERT JUMPDEST PUSH2 0x2B6C DUP7 PUSH2 0x2AE0 JUMP JUMPDEST SWAP5 POP PUSH1 0x20 DUP7 ADD CALLDATALOAD SWAP4 POP PUSH1 0x40 DUP7 ADD CALLDATALOAD SWAP3 POP PUSH1 0x60 DUP7 ADD CALLDATALOAD PUSH8 0xFFFFFFFFFFFFFFFF DUP2 GT ISZERO PUSH2 0x2B96 JUMPI PUSH1 0x0 DUP1 REVERT JUMPDEST PUSH2 0x2BA2 DUP9 DUP3 DUP10 ADD PUSH2 0x2B09 JUMP JUMPDEST SWAP7 SWAP10 SWAP6 SWAP9 POP SWAP4 SWAP7 POP SWAP3 SWAP5 SWAP4 SWAP3 POP POP POP JUMP JUMPDEST PUSH1 0x0 DUP1 PUSH1 0x0 DUP1 DUP5 DUP7 SUB PUSH1 0x80 DUP2 SLT ISZERO PUSH2 0x2BCA JUMPI PUSH1 0x0 DUP1 REVERT JUMPDEST PUSH2 0x2BD3 DUP7 PUSH2 0x2AE0 JUMP JUMPDEST SWAP5 POP PUSH1 0x40 PUSH32 0xFFFFFFFFFFFFFFFFFFFFFFFFFFFFFFFFFFFFFFFFFFFFFFFFFFFFFFFFFFFFFFE0 DUP3 ADD SLT ISZERO PUSH2 0x2C05 JUMPI PUSH1 0x0 DUP1 REVERT JUMPDEST POP PUSH1 0x40 MLOAD PUSH1 0x40 DUP2 ADD PUSH8 0xFFFFFFFFFFFFFFFF DUP3 DUP3 LT DUP2 DUP4 GT OR ISZERO PUSH2 0x2C2A JUMPI PUSH2 0x2C2A PUSH2 0x2934 JUMP JUMPDEST DUP2 PUSH1 0x40 MSTORE PUSH2 0x2C3A PUSH1 0x20 DUP10 ADD PUSH2 0x2AE0 JUMP JUMPDEST DUP4 MSTORE PUSH1 0x40 DUP9 ADD CALLDATALOAD PUSH1 0x20 DUP5 ADD MSTORE SWAP2 SWAP5 POP PUSH1 0x60 DUP8 ADD CALLDATALOAD SWAP2 DUP1 DUP4 GT ISZERO PUSH2 0x2C5C JUMPI PUSH1 0x0 DUP1 REVERT JUMPDEST POP POP PUSH2 0x2C6A DUP8 DUP3 DUP9 ADD PUSH2 0x2B09 JUMP JUMPDEST SWAP6 SWAP9 SWAP5 SWAP8 POP SWAP6 POP POP POP POP JUMP JUMPDEST PUSH1 0x0 DUP1 PUSH1 0x0 DUP1 PUSH1 0x0 DUP1 PUSH1 0x0 DUP1 PUSH1 0x0 PUSH1 0xA0 DUP11 DUP13 SUB SLT ISZERO PUSH2 0x2C94 JUMPI PUSH1 0x0 DUP1 REVERT JUMPDEST DUP10 CALLDATALOAD PUSH8 0xFFFFFFFFFFFFFFFF DUP1 DUP3 GT ISZERO PUSH2 0x2CAC JUMPI PUSH1 0x0 DUP1 REVERT JUMPDEST PUSH2 0x2CB8 DUP14 DUP4 DUP15 ADD PUSH2 0x289C JUMP JUMPDEST SWAP1 SWAP12 POP SWAP10 POP PUSH1 0x20 DUP13 ADD CALLDATALOAD SWAP2 POP DUP1 DUP3 GT ISZERO PUSH2 0x2CD1 JUMPI PUSH1 0x0 DUP1 REVERT JUMPDEST PUSH2 0x2CDD DUP14 DUP4 DUP15 ADD PUSH2 0x289C JUMP JUMPDEST SWAP1 SWAP10 POP SWAP8 POP PUSH1 0x40 DUP13 ADD CALLDATALOAD SWAP2 POP DUP1 DUP3 GT ISZERO PUSH2 0x2CF6 JUMPI PUSH1 0x0 DUP1 REVERT JUMPDEST PUSH2 0x2D02 DUP14 DUP4 DUP15 ADD PUSH2 0x289C JUMP JUMPDEST SWAP1 SWAP8 POP SWAP6 POP DUP6 SWAP2 POP PUSH2 0x2D16 PUSH1 0x60 DUP14 ADD PUSH2 0x2AE0 JUMP JUMPDEST SWAP5 POP PUSH1 0x80 DUP13 ADD CALLDATALOAD SWAP2 POP DUP1 DUP3 GT ISZERO PUSH2 0x2D2C JUMPI PUSH1 0x0 DUP1 REVERT JUMPDEST POP PUSH2 0x2D39 DUP13 DUP3 DUP14 ADD PUSH2 0x2B09 JUMP JUMPDEST SWAP2 POP DUP1 SWAP4 POP POP DUP1 SWAP2 POP POP SWAP3 SWAP6 SWAP9 POP SWAP3 SWAP6 SWAP9 POP SWAP3 SWAP6 SWAP9 JUMP JUMPDEST PUSH1 0x0 DUP1 PUSH1 0x0 DUP1 PUSH1 0x60 DUP6 DUP8 SUB SLT ISZERO PUSH2 0x2D66 JUMPI PUSH1 0x0 DUP1 REVERT JUMPDEST PUSH2 0x2D6F DUP6 PUSH2 0x2AE0 JUMP JUMPDEST SWAP4 POP PUSH1 0x20 DUP6 ADD CALLDATALOAD SWAP3 POP PUSH1 0x40 DUP6 ADD CALLDATALOAD PUSH8 0xFFFFFFFFFFFFFFFF DUP2 GT ISZERO PUSH2 0x2D92 JUMPI PUSH1 0x0 DUP1 REVERT JUMPDEST PUSH2 0x2C6A DUP8 DUP3 DUP9 ADD PUSH2 0x2B09 JUMP JUMPDEST DUP1 ISZERO ISZERO DUP2 EQ PUSH2 0x2DAC JUMPI PUSH1 0x0 DUP1 REVERT JUMPDEST POP JUMP JUMPDEST PUSH1 0x0 DUP1 PUSH1 0x0 DUP1 PUSH1 0x80 DUP6 DUP8 SUB SLT ISZERO PUSH2 0x2DC5 JUMPI PUSH1 0x0 DUP1 REVERT JUMPDEST PUSH2 0x2DCE DUP6 PUSH2 0x2AE0 JUMP JUMPDEST SWAP4 POP PUSH1 0x20 DUP1 DUP7 ADD CALLDATALOAD SWAP4 POP PUSH1 0x40 DUP7 ADD CALLDATALOAD PUSH2 0x2DE6 DUP2 PUSH2 0x2D9E JUMP JUMPDEST SWAP3 POP PUSH1 0x60 DUP7 ADD CALLDATALOAD PUSH8 0xFFFFFFFFFFFFFFFF DUP1 DUP3 GT ISZERO PUSH2 0x2E03 JUMPI PUSH1 0x0 DUP1 REVERT JUMPDEST DUP2 DUP9 ADD SWAP2 POP DUP9 PUSH1 0x1F DUP4 ADD SLT PUSH2 0x2E17 JUMPI PUSH1 0x0 DUP1 REVERT JUMPDEST DUP2 CALLDATALOAD DUP2 DUP2 GT ISZERO PUSH2 0x2E29 JUMPI PUSH2 0x2E29 PUSH2 0x2934 JUMP JUMPDEST PUSH2 0x2E59 DUP5 PUSH32 0xFFFFFFFFFFFFFFFFFFFFFFFFFFFFFFFFFFFFFFFFFFFFFFFFFFFFFFFFFFFFFFE0 PUSH1 0x1F DUP5 ADD AND ADD PUSH2 0x2963 JUMP JUMPDEST SWAP2 POP DUP1 DUP3 MSTORE DUP10 DUP5 DUP3 DUP6 ADD ADD GT ISZERO PUSH2 0x2E6F JUMPI PUSH1 0x0 DUP1 REVERT JUMPDEST DUP1 DUP5 DUP5 ADD DUP6 DUP5 ADD CALLDATACOPY PUSH1 0x0 DUP5 DUP3 DUP5 ADD ADD MSTORE POP DUP1 SWAP4 POP POP POP POP SWAP3 SWAP6 SWAP2 SWAP5 POP SWAP3 POP JUMP JUMPDEST PUSH1 0x0 DUP1 PUSH1 0x0 DUP1 PUSH1 0x0 DUP1 PUSH1 0x0 DUP1 PUSH1 0xE0 DUP10 DUP12 SUB SLT ISZERO PUSH2 0x2EAB JUMPI PUSH1 0x0 DUP1 REVERT JUMPDEST PUSH2 0x2EB4 DUP10 PUSH2 0x2AE0 JUMP JUMPDEST SWAP8 POP PUSH1 0x20 DUP10 ADD CALLDATALOAD SWAP7 POP PUSH1 0x40 DUP10 ADD CALLDATALOAD SWAP6 POP PUSH1 0x60 DUP10 ADD CALLDATALOAD SWAP5 POP PUSH1 0x80 DUP10 ADD CALLDATALOAD SWAP4 POP PUSH1 0xA0 DUP10 ADD CALLDATALOAD SWAP3 POP PUSH1 0xC0 DUP10 ADD CALLDATALOAD PUSH8 0xFFFFFFFFFFFFFFFF DUP2 GT ISZERO PUSH2 0x2EF3 JUMPI PUSH1 0x0 DUP1 REVERT JUMPDEST PUSH2 0x2EFF DUP12 DUP3 DUP13 ADD PUSH2 0x2B09 JUMP JUMPDEST SWAP10 SWAP13 SWAP9 SWAP12 POP SWAP7 SWAP10 POP SWAP5 SWAP8 SWAP4 SWAP7 SWAP3 SWAP6 SWAP5 POP POP POP JUMP JUMPDEST PUSH1 0x0 DUP1 PUSH1 0x0 DUP1 PUSH1 0x60 DUP6 DUP8 SUB SLT ISZERO PUSH2 0x2F29 JUMPI PUSH1 0x0 DUP1 REVERT JUMPDEST DUP5 CALLDATALOAD SWAP4 POP PUSH1 0x20 DUP6 ADD CALLDATALOAD SWAP3 POP PUSH1 0x40 DUP6 ADD CALLDATALOAD PUSH8 0xFFFFFFFFFFFFFFFF DUP2 GT ISZERO PUSH2 0x2D92 JUMPI PUSH1 0x0 DUP1 REVERT JUMPDEST PUSH1 0x0 DUP1 PUSH1 0x20 DUP4 DUP6 SUB SLT ISZERO PUSH2 0x2F61 JUMPI PUSH1 0x0 DUP1 REVERT JUMPDEST DUP3 CALLDATALOAD PUSH8 0xFFFFFFFFFFFFFFFF DUP2 GT ISZERO PUSH2 0x2F78 JUMPI PUSH1 0x0 DUP1 REVERT JUMPDEST PUSH2 0x2F84 DUP6 DUP3 DUP7 ADD PUSH2 0x2B09 JUMP JUMPDEST SWAP1 SWAP7 SWAP1 SWAP6 POP SWAP4 POP POP POP POP JUMP JUMPDEST PUSH32 0x4E487B7100000000000000000000000000000000000000000000000000000000 PUSH1 0x0 MSTORE PUSH1 0x11 PUSH1 0x4 MSTORE PUSH1 0x24 PUSH1 0x0 REVERT JUMPDEST DUP2 DUP2 SUB DUP2 DUP2 GT ISZERO PUSH2 0x2FD2 JUMPI PUSH2 0x2FD2 PUSH2 0x2F90 JUMP JUMPDEST SWAP3 SWAP2 POP POP JUMP JUMPDEST PUSH32 0x4E487B7100000000000000000000000000000000000000000000000000000000 PUSH1 0x0 MSTORE PUSH1 0x32 PUSH1 0x4 MSTORE PUSH1 0x24 PUSH1 0x0 REVERT JUMPDEST PUSH1 0x0 PUSH1 0x20 DUP3 DUP5 SUB SLT ISZERO PUSH2 0x3019 JUMPI PUSH1 0x0 DUP1 REVERT JUMPDEST POP MLOAD SWAP2 SWAP1 POP JUMP JUMPDEST PUSH1 0x20 DUP2 MSTORE DUP2 PUSH1 0x20 DUP3 ADD MSTORE PUSH1 0x0 PUSH32 0x7FFFFFFFFFFFFFFFFFFFFFFFFFFFFFFFFFFFFFFFFFFFFFFFFFFFFFFFFFFFFFF DUP4 GT ISZERO PUSH2 0x3059 JUMPI PUSH1 0x0 DUP1 REVERT JUMPDEST DUP3 PUSH1 0x5 SHL DUP1 DUP6 PUSH1 0x40 DUP6 ADD CALLDATACOPY SWAP2 SWAP1 SWAP2 ADD PUSH1 0x40 ADD SWAP4 SWAP3 POP POP POP JUMP JUMPDEST DUP2 DUP2 SUB PUSH1 0x0 DUP4 SLT DUP1 ISZERO DUP4 DUP4 SGT AND DUP4 DUP4 SLT DUP3 AND OR ISZERO PUSH2 0x3092 JUMPI PUSH2 0x3092 PUSH2 0x2F90 JUMP JUMPDEST POP SWAP3 SWAP2 POP POP JUMP JUMPDEST DUP1 DUP3 ADD DUP3 DUP2 SLT PUSH1 0x0 DUP4 SLT DUP1 ISZERO DUP3 AND DUP3 ISZERO DUP3 AND OR ISZERO PUSH2 0x30B9 JUMPI PUSH2 0x30B9 PUSH2 0x2F90 JUMP JUMPDEST POP POP SWAP3 SWAP2 POP POP JUMP JUMPDEST DUP1 DUP3 MUL PUSH1 0x0 DUP3 SLT PUSH32 0x8000000000000000000000000000000000000000000000000000000000000000 DUP5 EQ AND ISZERO PUSH2 0x30F9 JUMPI PUSH2 0x30F9 PUSH2 0x2F90 JUMP JUMPDEST DUP2 DUP2 SDIV DUP4 EQ DUP3 ISZERO OR PUSH2 0x2FD2 JUMPI PUSH2 0x2FD2 PUSH2 0x2F90 JUMP JUMPDEST PUSH32 0x4E487B7100000000000000000000000000000000000000000000000000000000 PUSH1 0x0 MSTORE PUSH1 0x12 PUSH1 0x4 MSTORE PUSH1 0x24 PUSH1 0x0 REVERT JUMPDEST PUSH1 0x0 DUP3 PUSH2 0x314B JUMPI PUSH2 0x314B PUSH2 0x310D JUMP JUMPDEST PUSH32 0xFFFFFFFFFFFFFFFFFFFFFFFFFFFFFFFFFFFFFFFFFFFFFFFFFFFFFFFFFFFFFFFF DUP4 EQ PUSH32 0x8000000000000000000000000000000000000000000000000000000000000000 DUP4 EQ AND ISZERO PUSH2 0x319F JUMPI PUSH2 0x319F PUSH2 0x2F90 JUMP JUMPDEST POP SDIV SWAP1 JUMP JUMPDEST PUSH1 0x0 DUP3 MLOAD PUSH2 0x31B6 DUP2 DUP5 PUSH1 0x20 DUP8 ADD PUSH2 0x2A58 JUMP JUMPDEST SWAP2 SWAP1 SWAP2 ADD SWAP3 SWAP2 POP POP JUMP JUMPDEST PUSH1 0x0 PUSH1 0x20 DUP3 DUP5 SUB SLT ISZERO PUSH2 0x31D2 JUMPI PUSH1 0x0 DUP1 REVERT JUMPDEST DUP2 MLOAD PUSH2 0x2AD9 DUP2 PUSH2 0x2D9E JUMP JUMPDEST PUSH1 0x0 DUP3 PUSH2 0x31EC JUMPI PUSH2 0x31EC PUSH2 0x310D JUMP JUMPDEST POP DIV SWAP1 JUMP JUMPDEST PUSH32 0x4E487B7100000000000000000000000000000000000000000000000000000000 PUSH1 0x0 MSTORE PUSH1 0x21 PUSH1 0x4 MSTORE PUSH1 0x24 PUSH1 0x0 REVERT JUMPDEST DUP1 DUP3 ADD DUP1 DUP3 GT ISZERO PUSH2 0x2FD2 JUMPI PUSH2 0x2FD2 PUSH2 0x2F90 JUMP JUMPDEST PUSH1 0x2 DUP2 LT PUSH2 0x2DAC JUMPI PUSH2 0x2DAC PUSH2 0x31F1 JUMP JUMPDEST DUP1 MLOAD ISZERO ISZERO DUP3 MSTORE PUSH1 0x20 DUP2 ADD MLOAD PUSH2 0x3257 DUP2 PUSH2 0x3233 JUMP JUMPDEST PUSH1 0x20 DUP4 ADD MSTORE PUSH1 0x40 DUP2 ADD MLOAD PUSH2 0x326A DUP2 PUSH2 0x3233 JUMP JUMPDEST PUSH1 0x40 DUP4 ADD MSTORE PUSH1 0x60 SWAP1 DUP2 ADD MLOAD SWAP2 ADD MSTORE JUMP JUMPDEST PUSH1 0x40 DUP1 DUP3 MSTORE DUP4 MLOAD DUP3 DUP3 ADD DUP2 SWAP1 MSTORE PUSH1 0x0 SWAP2 SWAP1 PUSH1 0x60 SWAP1 DUP2 DUP6 ADD SWAP1 PUSH1 0x20 DUP1 DUP10 ADD DUP7 JUMPDEST DUP4 DUP2 LT ISZERO PUSH2 0x32D4 JUMPI DUP2 MLOAD DUP1 MLOAD PUSH20 0xFFFFFFFFFFFFFFFFFFFFFFFFFFFFFFFFFFFFFFFF AND DUP7 MSTORE DUP4 ADD MLOAD DUP4 DUP7 ADD MSTORE SWAP4 DUP7 ADD SWAP4 SWAP1 DUP3 ADD SWAP1 PUSH1 0x1 ADD PUSH2 0x3299 JUMP JUMPDEST POP POP DUP7 DUP4 SUB DUP2 DUP9 ADD MSTORE DUP8 MLOAD DUP1 DUP5 MSTORE DUP2 DUP5 ADD SWAP3 POP PUSH1 0x5 DUP2 SWAP1 SHL DUP5 ADD DUP3 ADD DUP10 DUP4 ADD PUSH1 0x0 JUMPDEST DUP4 DUP2 LT ISZERO PUSH2 0x33D2 JUMPI PUSH32 0xFFFFFFFFFFFFFFFFFFFFFFFFFFFFFFFFFFFFFFFFFFFFFFFFFFFFFFFFFFFFFFE0 DUP8 DUP5 SUB ADD DUP7 MSTORE DUP2 MLOAD PUSH2 0x160 DUP2 MLOAD PUSH1 0x9 DUP2 LT PUSH2 0x333C JUMPI PUSH2 0x333C PUSH2 0x31F1 JUMP JUMPDEST DUP6 MSTORE DUP2 DUP8 ADD MLOAD DUP8 DUP7 ADD MSTORE DUP11 DUP3 ADD MLOAD PUSH2 0x3356 DUP13 DUP8 ADD DUP3 PUSH2 0x3243 JUMP JUMPDEST POP DUP10 DUP3 ADD MLOAD PUSH1 0xC0 DUP2 DUP2 DUP9 ADD MSTORE PUSH1 0x80 DUP5 ADD MLOAD SWAP2 POP PUSH1 0xE0 DUP3 DUP2 DUP10 ADD MSTORE PUSH1 0xA0 DUP6 ADD MLOAD SWAP3 POP PUSH2 0x339A PUSH2 0x100 DUP10 ADD DUP5 PUSH20 0xFFFFFFFFFFFFFFFFFFFFFFFFFFFFFFFFFFFFFFFF AND SWAP1 MSTORE JUMP JUMPDEST SWAP1 DUP5 ADD MLOAD PUSH2 0x120 DUP9 ADD MSTORE SWAP1 SWAP3 ADD MLOAD PUSH2 0x140 DUP7 ADD DUP3 SWAP1 MSTORE SWAP2 POP PUSH2 0x33BE DUP2 DUP7 ADD DUP4 PUSH2 0x2A7C JUMP JUMPDEST SWAP8 DUP8 ADD SWAP8 SWAP5 POP POP POP SWAP1 DUP5 ADD SWAP1 PUSH1 0x1 ADD PUSH2 0x32F6 JUMP JUMPDEST POP SWAP1 SWAP12 SWAP11 POP POP POP POP POP POP POP POP POP POP POP JUMP INVALID LOG2 PUSH5 0x6970667358 0x22 SLT KECCAK256 0xE0 JUMPDEST PUSH3 0x9FF237 0xD4 0xD6 DELEGATECALL 0xAE CALLER PUSH17 0xDF9F1E0D782ECBCE78817ECB6E6B619337 CODESIZE 0xB4 LOG1 PUSH5 0x736F6C6343 STOP ADDMOD ISZERO STOP CALLER ",
  "sha1": "27772689a19eca1a0baf36164bb14cf61fbcc8e5",
  "source": "// SPDX-License-Identifier: MIT\npragma solidity ^0.8.4;\npragma experimental ABIEncoderV2;\nimport \"contracts/ERC20/IERC20.sol\";\n\n// Leak alpha for fun and profit with https://twitter.com/mevalphaleak\ncontract IAlphaLeakConstants {\n    address internal constant TOKEN_ETH   = 0xEeeeeEeeeEeEeeEeEeEeeEEEeeeeEeeeeeeeEEeE;\n    address internal constant TOKEN_WETH  = 0xC02aaA39b223FE8D0A0e5C4F27eAD9083C756Cc2;\n    address internal constant TOKEN_WBTC  = 0x2260FAC5E5542a773Aa44fBCfeDf7C193bc2C599;\n    address internal constant TOKEN_DAI   = 0x6B175474E89094C44Da98b954EedeAC495271d0F;\n    address internal constant TOKEN_USDC  = 0xA0b86991c6218b36c1d19D4a2e9Eb0cE3606eB48;\n    address internal constant TOKEN_USDT  = 0xdAC17F958D2ee523a2206206994597C13D831ec7;\n\n    address internal constant PROXY_DYDX  = 0x1E0447b19BB6EcFdAe1e4AE1694b0C3659614e4e;\n    address internal constant ORACLE_USDC = 0x986b5E1e1755e3C2440e960477f25201B0a8bbD4;\n    address internal constant ORACLE_DAI  = 0x773616E4d11A78F511299002da57A0a94577F1f4;\n\n    uint256 internal constant FLAG_FLASH_DYDY_WETH     = 0x1;\n    uint256 internal constant FLAG_FLASH_DYDY_USDC     = 0x2;\n    uint256 internal constant FLAG_FLASH_DYDY_DAI      = 0x4;\n    uint256 internal constant FLAG_EXIT_WETH           = 0x8;\n\n    uint256 internal constant FLAG_WETH_ACCOUNTING     = 0x10;\n    uint256 internal constant FLAG_USDC_ACCOUNTING     = 0x20;\n    uint256 internal constant FLAG_DAI_ACCOUNTING      = 0x40;\n\n    uint256 internal constant FLAG_RETURN_WETH         = 0x1000;\n    uint256 internal constant FLAG_RETURN_USDC         = 0x2000;\n    uint256 internal constant FLAG_RETURN_DAI          = 0x4000;\n    uint256 internal constant FLAG_RETURN_CUSTOM       = 0x8000;\n    uint256 internal constant FLAG_RETURN_CUSTOM_SHIFT = 0x100000000000000000000;\n\n    uint256 internal constant WRAP_FLAG_TRANSFORM_ETH_TO_WETH_AFTER_APE = 0x1;\n    uint256 internal constant WRAP_FLAG_TRANSFORM_WETH_TO_ETH_AFTER_APE = 0x2;\n    uint256 internal constant WRAP_FLAG_PAY_COINBASE                    = 0x4;\n    uint256 internal constant WRAP_FLAG_PAY_COINBASE_BIT_SHIFT          = 0x100000000000000000000000000000000;\n}\n\n// All funds left on this contract will be immediately lost to snipers\n// This contract is completely permision-less and allows anyone to execute any arbitrary logic\n// Overall goal is to make a contract which allows to execute all types of nested flash loans\n\n// Third version of apeBot which is better gas optimised and performs internal call during flash-loan callbacks\n// Introduced support of apeBank(0x00000000454a11ca3a574738c0aab442b62d5d45)\ncontract ApeBotV3 is IAlphaLeakConstants {\n    string public constant name = \"https://twitter.com/mevalphaleak\";\n\n    fallback() external payable {}\n\n    function smallApeCallback(bytes calldata data) external payable {\n        // Added to support apeBank(0x00000000454a11ca3a574738c0aab442b62d5d45) flash loans natively\n        // Security checks aren't necessary since I'm an ape\n        eldddhzr(abi.decode(data,(uint256[])));\n    }\n    function largeApeCallback(\n        address,\n        uint wethToReturn,\n        uint wbtcToReturn,\n        uint daiToReturn,\n        uint usdcToReturn,\n        uint usdtToReturn,\n        bytes calldata data\n    ) external payable {\n        // Added to support apeBank(0x00000000454a11ca3a574738c0aab442b62d5d45) flash loans natively\n        // Security checks aren't necessary since I'm an ape\n        eldddhzr(abi.decode(data,(uint256[])));\n\n        // Since largeApeCallback function was used, bot operator is too lazy to return funds using generalised logic\n        uint256 selfBalance = address(this).balance;\n        if (selfBalance > 1) {\n            msg.sender.call{value:(selfBalance == msg.value ? selfBalance : selfBalance - 1)}(new bytes(0));\n        }\n        if (wethToReturn > 0) {\n            uint256 tokenBalance = IERC20Token(TOKEN_WETH).balanceOf(address(this));\n            if (tokenBalance > 1) {\n                IERC20Token(TOKEN_WETH).transfer(\n                    msg.sender,\n                    tokenBalance == wethToReturn ? tokenBalance : tokenBalance - 1\n                );\n            }\n        }\n        if (wbtcToReturn > 0) {\n            uint256 tokenBalance = IERC20Token(TOKEN_WBTC).balanceOf(address(this));\n            if (tokenBalance > 1) {\n                IERC20Token(TOKEN_WBTC).transfer(\n                    msg.sender,\n                    tokenBalance == wbtcToReturn ? tokenBalance : tokenBalance - 1\n                );\n            }\n        }\n        if (daiToReturn > 0) {\n            uint256 tokenBalance = IERC20Token(TOKEN_DAI).balanceOf(address(this));\n            if (tokenBalance > 1) {\n                IERC20Token(TOKEN_DAI).transfer(\n                    msg.sender,\n                    tokenBalance == daiToReturn ? tokenBalance : tokenBalance - 1\n                );\n            }\n        }\n        if (usdcToReturn > 0) {\n            uint256 tokenBalance = IERC20Token(TOKEN_USDC).balanceOf(address(this));\n            if (tokenBalance > 1) {\n                IERC20Token(TOKEN_USDC).transfer(\n                    msg.sender,\n                    tokenBalance == usdcToReturn ? tokenBalance : tokenBalance - 1\n                );\n            }\n        }\n        if (usdtToReturn > 0) {\n            uint256 tokenBalance = IERC20Token(TOKEN_USDT).balanceOf(address(this));\n            if (tokenBalance > 1) {\n                IERC20Token(TOKEN_USDT).transfer(\n                    msg.sender,\n                    tokenBalance == usdtToReturn ? tokenBalance : tokenBalance - 1\n                );\n            }\n        }\n    }\n    function callFunction(\n        address,\n        Types.AccountInfo memory,\n        bytes calldata data\n    ) external {\n        // Added to support DyDx flash loans natively\n        // Security checks aren't necessary since I'm an ape\n        eldddhzr(abi.decode(data,(uint256[])));\n    }\n    function executeOperation(\n        address,\n        uint256,\n        uint256,\n        bytes calldata _params\n    ) external {\n        // Added to support AAVE v1 flash loans natively\n        // Security checks aren't necessary since I'm an ape\n        eldddhzr(abi.decode(_params,(uint256[])));\n    }\n    function executeOperation(\n        address[] calldata,\n        uint256[] calldata,\n        uint256[] calldata,\n        address,\n        bytes calldata params\n    ) external returns (bool)\n    {\n        // Added to support AAVE v2 flash loans natively\n        // Security checks aren't necessary since I'm an ape\n        eldddhzr(abi.decode(params,(uint256[])));\n        return true;\n    }\n\n    function uniswapV2Call(\n        address,\n        uint,\n        uint,\n        bytes calldata data\n    ) external {\n        // Added to support uniswap v2 flash swaps natively\n        // Security checks aren't necessary since I'm an ape\n        eldddhzr(abi.decode(data,(uint256[])));\n    }\n    function uniswapV3FlashCallback(\n        uint256,\n        uint256,\n        bytes calldata data\n    ) external {\n        // Added to support uniswap v3 flash loans natively\n        // Security checks aren't necessary since I'm an ape\n        eldddhzr(abi.decode(data,(uint256[])));\n    }\n    function uniswapV3MintCallback(\n        uint256,\n        uint256,\n        bytes calldata data\n    ) external {\n        // Added to support uniswap v3 flash mints natively\n        // Security checks aren't necessary since I'm an ape\n        eldddhzr(abi.decode(data,(uint256[])));\n    }\n    function uniswapV3SwapCallback(\n        int256,\n        int256,\n        bytes calldata data\n    ) external {\n        // Added to support uniswap v3 flash swaps natively\n        // Security checks aren't necessary since I'm an ape\n        eldddhzr(abi.decode(data,(uint256[])));\n    }\n    function callbackWithReturn(address tokenToReturn, uint256 balanceToReturn, bytes calldata data) external payable {\n        eldddhzr(abi.decode(data,(uint256[])));\n        if (tokenToReturn != TOKEN_ETH) {\n            IERC20Token(tokenToReturn).transfer(msg.sender, balanceToReturn);\n        } else {\n            msg.sender.call{value:balanceToReturn}(new bytes(0));\n        }\n    }\n\n\n    // Function signature 0x00000000\n    // Was main entry point for origin apeBot: https://etherscan.io/address/0x666f80a198412bcb987c430831b57ad61facb666#code\n    // Still keeping to make backend migration to the newer version easier for me\n    function wfjizxua(\n        uint256 actionFlags,\n        uint256[] calldata actionData\n    ) public payable returns(int256 ethProfitDelta) {\n        int256[4] memory balanceDeltas;\n        balanceDeltas[0] = int256(address(this).balance - msg.value);\n        if ((actionFlags & (FLAG_WETH_ACCOUNTING | FLAG_USDC_ACCOUNTING | FLAG_DAI_ACCOUNTING)) > 0) {\n            // In general ACCOUNTING flags should be used only during simulation and not production to avoid wasting gas on oracle calls\n            if ((actionFlags & FLAG_WETH_ACCOUNTING) > 0) {\n                balanceDeltas[1] = int256(IERC20Token(TOKEN_WETH).balanceOf(address(this)));\n            }\n            if ((actionFlags & FLAG_USDC_ACCOUNTING) > 0) {\n                balanceDeltas[2] = int256(IERC20Token(TOKEN_USDC).balanceOf(address(this)));\n            }\n            if ((actionFlags & FLAG_DAI_ACCOUNTING) > 0) {\n                balanceDeltas[3] = int256(IERC20Token(TOKEN_DAI).balanceOf(address(this)));\n            }\n        }\n\n        if ((actionFlags & (FLAG_FLASH_DYDY_WETH | FLAG_FLASH_DYDY_USDC | FLAG_FLASH_DYDY_DAI)) > 0) {\n            // This simple logic only supports single token flashloans\n            // For multiple tokens or multiple providers you should use general purpose logic using 'ape' function\n            if ((actionFlags & FLAG_FLASH_DYDY_WETH) > 0) {\n                uint256 balanceToFlash = IERC20Token(TOKEN_WETH).balanceOf(PROXY_DYDX);\n                wrapWithDyDx(\n                    TOKEN_WETH,\n                    balanceToFlash - 1,\n                    IERC20Token(TOKEN_WETH).allowance(address(this), PROXY_DYDX) < balanceToFlash,\n                    abi.encode(actionData)\n                );\n            } else if ((actionFlags & FLAG_FLASH_DYDY_USDC) > 0) {\n                uint256 balanceToFlash = IERC20Token(TOKEN_USDC).balanceOf(PROXY_DYDX);\n                wrapWithDyDx(\n                    TOKEN_USDC,\n                    balanceToFlash - 1,\n                    IERC20Token(TOKEN_USDC).allowance(address(this), PROXY_DYDX) < balanceToFlash,\n                    abi.encode(actionData)\n                );\n            } else if ((actionFlags & FLAG_FLASH_DYDY_DAI) > 0) {\n                uint256 balanceToFlash = IERC20Token(TOKEN_DAI).balanceOf(PROXY_DYDX);\n                wrapWithDyDx(\n                    TOKEN_DAI,\n                    balanceToFlash - 1,\n                    IERC20Token(TOKEN_DAI).allowance(address(this), PROXY_DYDX) < balanceToFlash,\n                    abi.encode(actionData)\n                );\n            }\n        } else {\n            eldddhzr(actionData);\n        }\n\n        if ((actionFlags & FLAG_EXIT_WETH) > 0) {\n            uint wethbalance = IERC20Token(TOKEN_WETH).balanceOf(address(this));\n            if (wethbalance > 1) WETH9(TOKEN_WETH).withdraw(wethbalance - 1);\n        }\n\n        ethProfitDelta = int256(address(this).balance) - balanceDeltas[0];\n        if ((actionFlags & (FLAG_WETH_ACCOUNTING | FLAG_USDC_ACCOUNTING | FLAG_DAI_ACCOUNTING)) > 0) {\n            // In general ACCOUNTING flags should be used only during simulation and not production to avoid wasting gas on oracle calls\n            if ((actionFlags & FLAG_WETH_ACCOUNTING) > 0) {\n                ethProfitDelta += int256(IERC20Token(TOKEN_WETH).balanceOf(address(this))) - balanceDeltas[1];\n            }\n            if ((actionFlags & FLAG_USDC_ACCOUNTING) > 0) {\n                ethProfitDelta += (int256(IERC20Token(TOKEN_USDC).balanceOf(address(this))) - balanceDeltas[2]) * IChainlinkAggregator(ORACLE_USDC).latestAnswer() / (1 ether);\n            }\n            if ((actionFlags & FLAG_DAI_ACCOUNTING) > 0) {\n                ethProfitDelta += (int256(IERC20Token(TOKEN_DAI).balanceOf(address(this))) - balanceDeltas[3]) * IChainlinkAggregator(ORACLE_DAI).latestAnswer() / (1 ether);\n            }\n        }\n\n\n        uint selfBalance = address(this).balance;\n        if (selfBalance > 1 && msg.sender != address(this)) {\n            msg.sender.call{value:selfBalance - 1}(new bytes(0));\n        }\n        if ((actionFlags & (FLAG_RETURN_WETH | FLAG_RETURN_USDC | FLAG_RETURN_DAI | FLAG_RETURN_CUSTOM)) > 0 && msg.sender != address(this)) {\n            // Majority of simple atomic arbs should just need ETH\n            if ((actionFlags & FLAG_RETURN_WETH) > 0) {\n                uint tokenBalance = IERC20Token(TOKEN_WETH).balanceOf(address(this));\n                if (tokenBalance > 1) IERC20Token(TOKEN_WETH).transfer(msg.sender, tokenBalance - 1);\n            }\n            if ((actionFlags & FLAG_RETURN_USDC) > 0) {\n                uint tokenBalance = IERC20Token(TOKEN_USDC).balanceOf(address(this));\n                if (tokenBalance > 1) IERC20Token(TOKEN_USDC).transfer(msg.sender, tokenBalance - 1);\n            }\n            if ((actionFlags & FLAG_RETURN_DAI) > 0) {\n                uint tokenBalance = IERC20Token(TOKEN_DAI).balanceOf(address(this));\n                if (tokenBalance > 1) IERC20Token(TOKEN_DAI).transfer(msg.sender, tokenBalance - 1);\n            }\n            if ((actionFlags & FLAG_RETURN_CUSTOM) > 0) {\n                address tokenAddr = address(uint160(actionFlags / FLAG_RETURN_CUSTOM_SHIFT));\n                if (tokenAddr != TOKEN_ETH) {\n                    // We've already returned ETH above\n                    uint tokenBalance = IERC20Token(tokenAddr).balanceOf(address(this));\n                    if (tokenBalance > 1) IERC20Token(tokenAddr).transfer(msg.sender, tokenBalance - 1);\n                }\n            }\n        }\n    }\n\n    // Function signature 0x0000000f\n    function eldddhzr(uint256[] memory actionData) public {\n        bytes memory error = ape(actionData);\n\trequire(error.length == 0, string(error));\n\n        if ((actionData[0] & (WRAP_FLAG_TRANSFORM_ETH_TO_WETH_AFTER_APE | WRAP_FLAG_TRANSFORM_WETH_TO_ETH_AFTER_APE | WRAP_FLAG_PAY_COINBASE)) > 0) {\n            uint256 wrapFlags = actionData[0];\n            if ((wrapFlags & WRAP_FLAG_TRANSFORM_WETH_TO_ETH_AFTER_APE) > 0) {\n                uint wethbalance = IERC20Token(TOKEN_WETH).balanceOf(address(this));\n                if (wethbalance > 1) WETH9(TOKEN_WETH).withdraw(wethbalance - 1);\n                if ((wrapFlags & WRAP_FLAG_PAY_COINBASE) > 0) {\n                    block.coinbase.call{value:(wrapFlags / WRAP_FLAG_PAY_COINBASE_BIT_SHIFT)}(new bytes(0));\n                }\n            } else {\n                uint selfBalance = address(this).balance;\n                if ((wrapFlags & WRAP_FLAG_PAY_COINBASE) > 0) {\n                    uint amountToPay = wrapFlags / WRAP_FLAG_PAY_COINBASE_BIT_SHIFT;\n                    if (selfBalance < amountToPay) {\n                        WETH9(TOKEN_WETH).withdraw(amountToPay - selfBalance);\n                        selfBalance = 0;\n                    } else {\n                        selfBalance -= amountToPay;\n                    }\n                    block.coinbase.call{value:amountToPay}(new bytes(0));\n                }\n                if (((wrapFlags & WRAP_FLAG_TRANSFORM_ETH_TO_WETH_AFTER_APE) > 0) && selfBalance > 1) {\n                    WETH9(TOKEN_WETH).deposit{value: selfBalance - 1}();\n                }\n            }\n        }\n    }\n\n    function ape(uint256[] memory data) internal returns (bytes memory) {\n        // data[0] was used for wrapFlags inside 0x0000000f function\n        uint callId = 1;\n        for (; callId < data.length;) {\n            assembly {\n                let callInfo := mload(add(data, mul(add(callId, 1), 0x20)))\n\t\tlet callLength := and(div(callInfo, 0x1000000000000000000000000000000000000000000000000000000), 0xffff)\n                let p := mload(0x40)   // Find empty storage location using \"free memory pointer\"\n                // Place signature at begining of empty storage, hacky logic to compute shift here\n\t\tlet callSignDataShiftResult := mul(and(callInfo, 0xffffffff0000000000000000000000000000000000000000000000), 0x10000000000)\n                switch callSignDataShiftResult\n                case 0 {\n\t\t    /* if callSignDataShiftResult is 0 */\n\t\t    /* the bitlength of the calldata as determined in callInfo, no function signature */\n                    callLength := mul(callLength, 0x20)\n\t\t    /* data[(callId + 3)*32: (callId + 3)*32 + callLength] (byte indexed, not word indexed) stores the calldata */\n                    callSignDataShiftResult := add(data, mul(0x20, add(callId, 3)))\n                    for { let i := 0 } lt(i, callLength) { i := add(i, 0x20) } {\n\t\t\t/* store calldata at the free memory pointer */\n                        mstore(add(p, i), mload(add(callSignDataShiftResult, i)))\n                    }\n                }\n                default {\n\t\t    /* if callDataSignShiftResult is not 0  */\n\t\t    /* store it at the free memory pointer */\n                    mstore(p, callSignDataShiftResult)\n\t\t    /* the bitlength of callLength as determined in callInfo, plus the function signature */\n                    callLength := add(mul(callLength, 0x20), 4)\n\t\t    /* data[(callId + 3)*32:(callId + 3)*32 + callLength] (byte indexed, not word indexed) stores the callData, including the function signature */\n                    callSignDataShiftResult := add(data, sub(mul(0x20, add(callId, 3)), 4))\n                    for { let i := 4 } lt(i, callLength) { i := add(i, 0x20) } {\n\t\t\t/* store calldata at the free memory pointer */\t\t\t\t\t\t\t\t\t\t\n                        mstore(add(p, i), mload(add(callSignDataShiftResult, i)))\n                    }\n                }\n\n                mstore(0x40, add(p, add(callLength, 0x20)))\n                // new free pointer position after the output values of the called function.\n\t\t/* the address stored at the last 160 bits of data[callId + 1] */\n                let callContract := and(callInfo, 0xffffffffffffffffffffffffffffffffffffffff)\n                // Re-use callSignDataShiftResult as success\n\t\t/* the first 4 bits of data[callId + 1] */\n                switch and(callInfo, 0xf000000000000000000000000000000000000000000000000000000000000000)\n                case 0x1000000000000000000000000000000000000000000000000000000000000000 {\n                    callSignDataShiftResult := delegatecall(\n                                    and(div(callInfo, 0x10000000000000000000000000000000000000000), 0xffffff), // allowed gas to use\n                                    callContract, // contract to execute\n                                    p,    // Inputs are at location p\n                                    callLength, //Inputs size\n                                    p,    //Store output over input\n                                    0x20) //Output is 32 bytes long\n                }\n                default {\n                    callSignDataShiftResult := call(\n                                    and(div(callInfo, 0x10000000000000000000000000000000000000000), 0xffffff), // allowed gas to use\n                                    callContract, // contract to execute\n                                    mload(add(data, mul(add(callId, 2), 0x20))), // wei value amount\n                                    p,    // Inputs are at location p\n                                    callLength, //Inputs size\n                                    p,    //Store output over input\n                                    0x20) //Output is 32 bytes long\n                }\n\t\tmstore(p, callContract)\n\t\tswitch callSignDataShiftResult\n\t\tcase 0 { return(p, 32) }\n\t\tdefault {}\n\n                callSignDataShiftResult := and(div(callInfo, 0x10000000000000000000000000000000000000000000000000000000000), 0xff)\n                if gt(callSignDataShiftResult, 0) {\n                    // We're copying call result as input to some futher call\n                    mstore(add(data, mul(callSignDataShiftResult, 0x20)), mload(p))\n                }\n                callId := add(callId, add(and(div(callInfo, 0x1000000000000000000000000000000000000000000000000000000), 0xffff), 2))\n                mstore(0x40, p) // Set storage pointer to empty space\n            }\n        }\n\treturn new bytes(0);\n    }\n\n    // Executing DyDx flash-loans with generalised logic above is quite inefficient, this helper function attempts to decrease gas cost a bit\n    function wrapWithDyDx(address requiredToken, uint256 requiredBalance, bool requiredApprove, bytes memory data) public {\n        Types.ActionArgs[] memory operations = new Types.ActionArgs[](3);\n        operations[0] = Types.ActionArgs({\n            actionType: Types.ActionType.Withdraw,\n            accountId: 0,\n            amount: Types.AssetAmount({\n                sign: false,\n                denomination: Types.AssetDenomination.Wei,\n                ref: Types.AssetReference.Delta,\n                value: requiredBalance\n            }),\n            primaryMarketId: marketIdFromTokenAddress(requiredToken),\n            secondaryMarketId: 0,\n            otherAddress: address(this),\n            otherAccountId: 0,\n            data: \"\"\n        });\n        operations[1] = Types.ActionArgs({\n            actionType: Types.ActionType.Call,\n            accountId: 0,\n            amount: Types.AssetAmount({\n                sign: false,\n                denomination: Types.AssetDenomination.Wei,\n                ref: Types.AssetReference.Delta,\n                value: 0\n            }),\n            primaryMarketId: 0,\n            secondaryMarketId: 0,\n            otherAddress: address(this),\n            otherAccountId: 0,\n            data: data\n        });\n        operations[2] = Types.ActionArgs({\n            actionType: Types.ActionType.Deposit,\n            accountId: 0,\n            amount: Types.AssetAmount({\n                sign: true,\n                denomination: Types.AssetDenomination.Wei,\n                ref: Types.AssetReference.Delta,\n                value: requiredBalance + (requiredToken == TOKEN_WETH ? 1 : 2)\n            }),\n            primaryMarketId: marketIdFromTokenAddress(requiredToken),\n            secondaryMarketId: 0,\n            otherAddress: address(this),\n            otherAccountId: 0,\n            data: \"\"\n        });\n\n        Types.AccountInfo[] memory accountInfos = new Types.AccountInfo[](1);\n        accountInfos[0] = Types.AccountInfo({\n            owner: address(this),\n            number: 1\n        });\n        if (requiredApprove) {\n          // Approval might be already set or can be set inside of callback function\n          IERC20Token(requiredToken).approve(\n            PROXY_DYDX,\n            0xffffffffffffffffffffffffffffffffffffffffffffffffffffffffffffffff\n          );\n        }\n        ISoloMargin(PROXY_DYDX).operate(accountInfos, operations);\n    }\n    function marketIdFromTokenAddress(address tokenAddress) internal pure returns (uint256 resultId) {\n        assembly {\n            switch tokenAddress\n            case 0xC02aaA39b223FE8D0A0e5C4F27eAD9083C756Cc2 {\n                resultId := 0\n            }\n            case 0xA0b86991c6218b36c1d19D4a2e9Eb0cE3606eB48 {\n                resultId := 2\n            }\n            case 0x6B175474E89094C44Da98b954EedeAC495271d0F {\n                resultId := 3\n            }\n            default {\n                revert(0, 0)\n            }\n        }\n    }\n}\n\n\ninterface ISoloMargin {\n    function operate(Types.AccountInfo[] memory accounts, Types.ActionArgs[] memory actions) external;\n    function getMarketTokenAddress(uint256 marketId) external view returns (address);\n}\ninterface IERC20Token {\n    function balanceOf(address _owner) external view returns (uint256);\n    function allowance(address _owner, address _spender) external view returns (uint256);\n    function transfer(address _to, uint256 _value) external returns (bool success);\n    function transferFrom(address _from, address _to, uint256 _value) external returns (bool success);\n    function approve(address _spender, uint256 _value) external returns (bool success);\n}\ninterface WETH9 {\n    function deposit() external payable;\n    function withdraw(uint wad) external;\n}\ninterface IGasToken {\n    function free(uint256 value) external returns (uint256);\n}\ninterface IChainlinkAggregator {\n  function latestAnswer() external view returns (int256);\n}\n\nlibrary Types {\n    enum ActionType {\n        Deposit,   // supply tokens\n        Withdraw,  // borrow tokens\n        Transfer,  // transfer balance between accounts\n        Buy,       // buy an amount of some token (externally)\n        Sell,      // sell an amount of some token (externally)\n        Trade,     // trade tokens against another account\n        Liquidate, // liquidate an undercollateralized or expiring account\n        Vaporize,  // use excess tokens to zero-out a completely negative account\n        Call       // send arbitrary data to an address\n    }\n\n    enum AssetDenomination {\n        Wei, // the amount is denominated in wei\n        Par  // the amount is denominated in par\n    }\n\n    enum AssetReference {\n        Delta, // the amount is given as a delta from the current value\n        Target // the amount is given as an exact number to end up at\n    }\n\n    struct AssetAmount {\n        bool sign; // true if positive\n        AssetDenomination denomination;\n        AssetReference ref;\n        uint256 value;\n    }\n\n    struct Wei {\n        bool sign; // true if positive\n        uint256 value;\n    }\n\n    struct ActionArgs {\n        ActionType actionType;\n        uint256 accountId;\n        AssetAmount amount;\n        uint256 primaryMarketId;\n        uint256 secondaryMarketId;\n        address otherAddress;\n        uint256 otherAccountId;\n        bytes data;\n    }\n\n    struct AccountInfo {\n        address owner;  // The address that owns the account\n        uint256 number; // A nonce that allows a single address to control many accounts\n    }\n}\n",
  "sourcePath": "contracts/ApeBotV3.sol",
  "type": "contract"
}