{
  "abi": [
    {
      "inputs": [
        {
          "internalType": "address",
          "name": "pool",
          "type": "address"
        },
        {
          "internalType": "uint256",
          "name": "amount",
          "type": "uint256"
        },
        {
          "internalType": "bool",
          "name": "isToken0",
          "type": "bool"
        },
        {
          "internalType": "bytes",
          "name": "data",
          "type": "bytes"
        }
      ],
      "name": "testFlash",
      "outputs": [],
      "stateMutability": "nonpayable",
      "type": "function"
    },
    {
      "inputs": [
        {
          "internalType": "uint256",
          "name": "",
          "type": "uint256"
        },
        {
          "internalType": "uint256",
          "name": "",
          "type": "uint256"
        },
        {
          "internalType": "bytes",
          "name": "data",
          "type": "bytes"
        }
      ],
      "name": "uniswapV3FlashCallback",
      "outputs": [],
      "stateMutability": "nonpayable",
      "type": "function"
    }
  ],
  "bytecode": "6080604052600080546001600160a01b03191673c02aaa39b223fe8d0a0e5c4f27ead9083c756cc217905534801561003657600080fd5b506105b9806100466000396000f3fe608060405234801561001057600080fd5b50600436106100365760003560e01c80639e69bf221461003b578063e9cbafb014610050575b600080fd5b61004e610049366004610277565b610063565b005b61004e61005e366004610372565b610112565b600083158015906100715750825b61007c57600061007e565b835b6040517f490e6cbc00000000000000000000000000000000000000000000000000000000815290915073ffffffffffffffffffffffffffffffffffffffff86169063490e6cbc906100d99030908590819088906004016103f2565b600060405180830381600087803b1580156100f357600080fd5b505af1158015610107573d6000803e3d6000fd5b505050505050505050565b60006101208284018461048a565b60008054825192935073ffffffffffffffffffffffffffffffffffffffff169163a9059cbb91339185919061015757610157610530565b60200260200101516040518363ffffffff1660e01b815260040161019d92919073ffffffffffffffffffffffffffffffffffffffff929092168252602082015260400190565b6020604051808303816000875af11580156101bc573d6000803e3d6000fd5b505050506040513d601f19601f820116820180604052508101906101e0919061055f565b505050505050565b80151581146101f657600080fd5b50565b7f4e487b7100000000000000000000000000000000000000000000000000000000600052604160045260246000fd5b604051601f82017fffffffffffffffffffffffffffffffffffffffffffffffffffffffffffffffe016810167ffffffffffffffff8111828210171561026f5761026f6101f9565b604052919050565b6000806000806080858703121561028d57600080fd5b843573ffffffffffffffffffffffffffffffffffffffff811681146102b157600080fd5b9350602085810135935060408601356102c9816101e8565b9250606086013567ffffffffffffffff808211156102e657600080fd5b818801915088601f8301126102fa57600080fd5b81358181111561030c5761030c6101f9565b61033c847fffffffffffffffffffffffffffffffffffffffffffffffffffffffffffffffe0601f84011601610228565b9150808252898482850101111561035257600080fd5b808484018584013760008482840101525080935050505092959194509250565b6000806000806060858703121561038857600080fd5b8435935060208501359250604085013567ffffffffffffffff808211156103ae57600080fd5b818701915087601f8301126103c257600080fd5b8135818111156103d157600080fd5b8860208285010111156103e357600080fd5b95989497505060200194505050565b73ffffffffffffffffffffffffffffffffffffffff8516815260006020858184015284604084015260806060840152835180608085015260005b818110156104485785810183015185820160a00152820161042c565b50600060a0828601015260a07fffffffffffffffffffffffffffffffffffffffffffffffffffffffffffffffe0601f8301168501019250505095945050505050565b6000602080838503121561049d57600080fd5b823567ffffffffffffffff808211156104b557600080fd5b818501915085601f8301126104c957600080fd5b8135818111156104db576104db6101f9565b8060051b91506104ec848301610228565b818152918301840191848101908884111561050657600080fd5b938501935b838510156105245784358252938501939085019061050b565b98975050505050505050565b7f4e487b7100000000000000000000000000000000000000000000000000000000600052603260045260246000fd5b60006020828403121561057157600080fd5b815161057c816101e8565b939250505056fea26469706673582212204cdc90ed47e1cad04802e0e0704b2ffd310795d0bc4970be9936ac0d607fcb1f64736f6c63430008150033",
  "bytecodeSha1": "a08e893fd30bf2bb059e3bf95af3e84fa5de51aa",
  "compiler": {
    "evm_version": "istanbul",
    "optimizer": {
      "enabled": true,
      "runs": 1000000
    },
    "version": "0.8.21+commit.d9974bed"
  },
  "contractName": "TestUniswapV3FlashCallback",
  "language": "Solidity",
  "natspec": {
    "kind": "dev",
    "methods": {},
    "version": 1
  },
  "opcodes": "PUSH1 0x80 PUSH1 0x40 MSTORE CALLVALUE DUP1 ISZERO PUSH2 0x10 JUMPI PUSH1 0x0 DUP1 REVERT JUMPDEST POP PUSH1 0x4 CALLDATASIZE LT PUSH2 0x36 JUMPI PUSH1 0x0 CALLDATALOAD PUSH1 0xE0 SHR DUP1 PUSH4 0x9E69BF22 EQ PUSH2 0x3B JUMPI DUP1 PUSH4 0xE9CBAFB0 EQ PUSH2 0x50 JUMPI JUMPDEST PUSH1 0x0 DUP1 REVERT JUMPDEST PUSH2 0x4E PUSH2 0x49 CALLDATASIZE PUSH1 0x4 PUSH2 0x277 JUMP JUMPDEST PUSH2 0x63 JUMP JUMPDEST STOP JUMPDEST PUSH2 0x4E PUSH2 0x5E CALLDATASIZE PUSH1 0x4 PUSH2 0x372 JUMP JUMPDEST PUSH2 0x112 JUMP JUMPDEST PUSH1 0x0 DUP4 ISZERO DUP1 ISZERO SWAP1 PUSH2 0x71 JUMPI POP DUP3 JUMPDEST PUSH2 0x7C JUMPI PUSH1 0x0 PUSH2 0x7E JUMP JUMPDEST DUP4 JUMPDEST PUSH1 0x40 MLOAD PUSH32 0x490E6CBC00000000000000000000000000000000000000000000000000000000 DUP2 MSTORE SWAP1 SWAP2 POP PUSH20 0xFFFFFFFFFFFFFFFFFFFFFFFFFFFFFFFFFFFFFFFF DUP7 AND SWAP1 PUSH4 0x490E6CBC SWAP1 PUSH2 0xD9 SWAP1 ADDRESS SWAP1 DUP6 SWAP1 DUP2 SWAP1 DUP9 SWAP1 PUSH1 0x4 ADD PUSH2 0x3F2 JUMP JUMPDEST PUSH1 0x0 PUSH1 0x40 MLOAD DUP1 DUP4 SUB DUP2 PUSH1 0x0 DUP8 DUP1 EXTCODESIZE ISZERO DUP1 ISZERO PUSH2 0xF3 JUMPI PUSH1 0x0 DUP1 REVERT JUMPDEST POP GAS CALL ISZERO DUP1 ISZERO PUSH2 0x107 JUMPI RETURNDATASIZE PUSH1 0x0 DUP1 RETURNDATACOPY RETURNDATASIZE PUSH1 0x0 REVERT JUMPDEST POP POP POP POP POP POP POP POP POP JUMP JUMPDEST PUSH1 0x0 PUSH2 0x120 DUP3 DUP5 ADD DUP5 PUSH2 0x48A JUMP JUMPDEST PUSH1 0x0 DUP1 SLOAD DUP3 MLOAD SWAP3 SWAP4 POP PUSH20 0xFFFFFFFFFFFFFFFFFFFFFFFFFFFFFFFFFFFFFFFF AND SWAP2 PUSH4 0xA9059CBB SWAP2 CALLER SWAP2 DUP6 SWAP2 SWAP1 PUSH2 0x157 JUMPI PUSH2 0x157 PUSH2 0x530 JUMP JUMPDEST PUSH1 0x20 MUL PUSH1 0x20 ADD ADD MLOAD PUSH1 0x40 MLOAD DUP4 PUSH4 0xFFFFFFFF AND PUSH1 0xE0 SHL DUP2 MSTORE PUSH1 0x4 ADD PUSH2 0x19D SWAP3 SWAP2 SWAP1 PUSH20 0xFFFFFFFFFFFFFFFFFFFFFFFFFFFFFFFFFFFFFFFF SWAP3 SWAP1 SWAP3 AND DUP3 MSTORE PUSH1 0x20 DUP3 ADD MSTORE PUSH1 0x40 ADD SWAP1 JUMP JUMPDEST PUSH1 0x20 PUSH1 0x40 MLOAD DUP1 DUP4 SUB DUP2 PUSH1 0x0 DUP8 GAS CALL ISZERO DUP1 ISZERO PUSH2 0x1BC JUMPI RETURNDATASIZE PUSH1 0x0 DUP1 RETURNDATACOPY RETURNDATASIZE PUSH1 0x0 REVERT JUMPDEST POP POP POP POP PUSH1 0x40 MLOAD RETURNDATASIZE PUSH1 0x1F NOT PUSH1 0x1F DUP3 ADD AND DUP3 ADD DUP1 PUSH1 0x40 MSTORE POP DUP2 ADD SWAP1 PUSH2 0x1E0 SWAP2 SWAP1 PUSH2 0x55F JUMP JUMPDEST POP POP POP POP POP POP JUMP JUMPDEST DUP1 ISZERO ISZERO DUP2 EQ PUSH2 0x1F6 JUMPI PUSH1 0x0 DUP1 REVERT JUMPDEST POP JUMP JUMPDEST PUSH32 0x4E487B7100000000000000000000000000000000000000000000000000000000 PUSH1 0x0 MSTORE PUSH1 0x41 PUSH1 0x4 MSTORE PUSH1 0x24 PUSH1 0x0 REVERT JUMPDEST PUSH1 0x40 MLOAD PUSH1 0x1F DUP3 ADD PUSH32 0xFFFFFFFFFFFFFFFFFFFFFFFFFFFFFFFFFFFFFFFFFFFFFFFFFFFFFFFFFFFFFFE0 AND DUP2 ADD PUSH8 0xFFFFFFFFFFFFFFFF DUP2 GT DUP3 DUP3 LT OR ISZERO PUSH2 0x26F JUMPI PUSH2 0x26F PUSH2 0x1F9 JUMP JUMPDEST PUSH1 0x40 MSTORE SWAP2 SWAP1 POP JUMP JUMPDEST PUSH1 0x0 DUP1 PUSH1 0x0 DUP1 PUSH1 0x80 DUP6 DUP8 SUB SLT ISZERO PUSH2 0x28D JUMPI PUSH1 0x0 DUP1 REVERT JUMPDEST DUP5 CALLDATALOAD PUSH20 0xFFFFFFFFFFFFFFFFFFFFFFFFFFFFFFFFFFFFFFFF DUP2 AND DUP2 EQ PUSH2 0x2B1 JUMPI PUSH1 0x0 DUP1 REVERT JUMPDEST SWAP4 POP PUSH1 0x20 DUP6 DUP2 ADD CALLDATALOAD SWAP4 POP PUSH1 0x40 DUP7 ADD CALLDATALOAD PUSH2 0x2C9 DUP2 PUSH2 0x1E8 JUMP JUMPDEST SWAP3 POP PUSH1 0x60 DUP7 ADD CALLDATALOAD PUSH8 0xFFFFFFFFFFFFFFFF DUP1 DUP3 GT ISZERO PUSH2 0x2E6 JUMPI PUSH1 0x0 DUP1 REVERT JUMPDEST DUP2 DUP9 ADD SWAP2 POP DUP9 PUSH1 0x1F DUP4 ADD SLT PUSH2 0x2FA JUMPI PUSH1 0x0 DUP1 REVERT JUMPDEST DUP2 CALLDATALOAD DUP2 DUP2 GT ISZERO PUSH2 0x30C JUMPI PUSH2 0x30C PUSH2 0x1F9 JUMP JUMPDEST PUSH2 0x33C DUP5 PUSH32 0xFFFFFFFFFFFFFFFFFFFFFFFFFFFFFFFFFFFFFFFFFFFFFFFFFFFFFFFFFFFFFFE0 PUSH1 0x1F DUP5 ADD AND ADD PUSH2 0x228 JUMP JUMPDEST SWAP2 POP DUP1 DUP3 MSTORE DUP10 DUP5 DUP3 DUP6 ADD ADD GT ISZERO PUSH2 0x352 JUMPI PUSH1 0x0 DUP1 REVERT JUMPDEST DUP1 DUP5 DUP5 ADD DUP6 DUP5 ADD CALLDATACOPY PUSH1 0x0 DUP5 DUP3 DUP5 ADD ADD MSTORE POP DUP1 SWAP4 POP POP POP POP SWAP3 SWAP6 SWAP2 SWAP5 POP SWAP3 POP JUMP JUMPDEST PUSH1 0x0 DUP1 PUSH1 0x0 DUP1 PUSH1 0x60 DUP6 DUP8 SUB SLT ISZERO PUSH2 0x388 JUMPI PUSH1 0x0 DUP1 REVERT JUMPDEST DUP5 CALLDATALOAD SWAP4 POP PUSH1 0x20 DUP6 ADD CALLDATALOAD SWAP3 POP PUSH1 0x40 DUP6 ADD CALLDATALOAD PUSH8 0xFFFFFFFFFFFFFFFF DUP1 DUP3 GT ISZERO PUSH2 0x3AE JUMPI PUSH1 0x0 DUP1 REVERT JUMPDEST DUP2 DUP8 ADD SWAP2 POP DUP8 PUSH1 0x1F DUP4 ADD SLT PUSH2 0x3C2 JUMPI PUSH1 0x0 DUP1 REVERT JUMPDEST DUP2 CALLDATALOAD DUP2 DUP2 GT ISZERO PUSH2 0x3D1 JUMPI PUSH1 0x0 DUP1 REVERT JUMPDEST DUP9 PUSH1 0x20 DUP3 DUP6 ADD ADD GT ISZERO PUSH2 0x3E3 JUMPI PUSH1 0x0 DUP1 REVERT JUMPDEST SWAP6 SWAP9 SWAP5 SWAP8 POP POP PUSH1 0x20 ADD SWAP5 POP POP POP JUMP JUMPDEST PUSH20 0xFFFFFFFFFFFFFFFFFFFFFFFFFFFFFFFFFFFFFFFF DUP6 AND DUP2 MSTORE PUSH1 0x0 PUSH1 0x20 DUP6 DUP2 DUP5 ADD MSTORE DUP5 PUSH1 0x40 DUP5 ADD MSTORE PUSH1 0x80 PUSH1 0x60 DUP5 ADD MSTORE DUP4 MLOAD DUP1 PUSH1 0x80 DUP6 ADD MSTORE PUSH1 0x0 JUMPDEST DUP2 DUP2 LT ISZERO PUSH2 0x448 JUMPI DUP6 DUP2 ADD DUP4 ADD MLOAD DUP6 DUP3 ADD PUSH1 0xA0 ADD MSTORE DUP3 ADD PUSH2 0x42C JUMP JUMPDEST POP PUSH1 0x0 PUSH1 0xA0 DUP3 DUP7 ADD ADD MSTORE PUSH1 0xA0 PUSH32 0xFFFFFFFFFFFFFFFFFFFFFFFFFFFFFFFFFFFFFFFFFFFFFFFFFFFFFFFFFFFFFFE0 PUSH1 0x1F DUP4 ADD AND DUP6 ADD ADD SWAP3 POP POP POP SWAP6 SWAP5 POP POP POP POP POP JUMP JUMPDEST PUSH1 0x0 PUSH1 0x20 DUP1 DUP4 DUP6 SUB SLT ISZERO PUSH2 0x49D JUMPI PUSH1 0x0 DUP1 REVERT JUMPDEST DUP3 CALLDATALOAD PUSH8 0xFFFFFFFFFFFFFFFF DUP1 DUP3 GT ISZERO PUSH2 0x4B5 JUMPI PUSH1 0x0 DUP1 REVERT JUMPDEST DUP2 DUP6 ADD SWAP2 POP DUP6 PUSH1 0x1F DUP4 ADD SLT PUSH2 0x4C9 JUMPI PUSH1 0x0 DUP1 REVERT JUMPDEST DUP2 CALLDATALOAD DUP2 DUP2 GT ISZERO PUSH2 0x4DB JUMPI PUSH2 0x4DB PUSH2 0x1F9 JUMP JUMPDEST DUP1 PUSH1 0x5 SHL SWAP2 POP PUSH2 0x4EC DUP5 DUP4 ADD PUSH2 0x228 JUMP JUMPDEST DUP2 DUP2 MSTORE SWAP2 DUP4 ADD DUP5 ADD SWAP2 DUP5 DUP2 ADD SWAP1 DUP9 DUP5 GT ISZERO PUSH2 0x506 JUMPI PUSH1 0x0 DUP1 REVERT JUMPDEST SWAP4 DUP6 ADD SWAP4 JUMPDEST DUP4 DUP6 LT ISZERO PUSH2 0x524 JUMPI DUP5 CALLDATALOAD DUP3 MSTORE SWAP4 DUP6 ADD SWAP4 SWAP1 DUP6 ADD SWAP1 PUSH2 0x50B JUMP JUMPDEST SWAP9 SWAP8 POP POP POP POP POP POP POP POP JUMP JUMPDEST PUSH32 0x4E487B7100000000000000000000000000000000000000000000000000000000 PUSH1 0x0 MSTORE PUSH1 0x32 PUSH1 0x4 MSTORE PUSH1 0x24 PUSH1 0x0 REVERT JUMPDEST PUSH1 0x0 PUSH1 0x20 DUP3 DUP5 SUB SLT ISZERO PUSH2 0x571 JUMPI PUSH1 0x0 DUP1 REVERT JUMPDEST DUP2 MLOAD PUSH2 0x57C DUP2 PUSH2 0x1E8 JUMP JUMPDEST SWAP4 SWAP3 POP POP POP JUMP INVALID LOG2 PUSH5 0x6970667358 0x22 SLT KECCAK256 0x4C 0xDC SWAP1 0xED SELFBALANCE 0xE1 0xCA 0xD0 BASEFEE MUL 0xE0 0xE0 PUSH17 0x4B2FFD310795D0BC4970BE9936AC0D607F 0xCB 0x1F PUSH5 0x736F6C6343 STOP ADDMOD ISZERO STOP CALLER ",
  "sha1": "ca422371e034a31f24d2e410f806636d1097b5e9",
  "source": "// SPDX-License-Identifier: MIT\npragma solidity ^0.8.4;\npragma experimental ABIEncoderV2;\n\n\nimport \"contracts/ERC20/IERC20.sol\";\n\ncontract TestUniswapV3FlashCallback {\n    address TOKEN_WETH  = 0xC02aaA39b223FE8D0A0e5C4F27eAD9083C756Cc2;\n\n    function uniswapV3FlashCallback(\n        uint256,\n        uint256,\n        bytes calldata data\n    ) external {\n\tuint[] memory amount = abi.decode(data,(uint256[]));\n\tIERC20(TOKEN_WETH).transfer(msg.sender, amount[0]);\n    }\n\n    function testFlash(address pool, uint amount, bool isToken0, bytes memory data) public { \n        uint256 tokenAmount = (amount != 0 && isToken0) ? amount : 0; // Replace the condition based on your needs\n        IUniswapV3PoolActions(pool).flash(address(this), tokenAmount, tokenAmount, data);\n    }\n}\n\ninterface IUniswapV3PoolActions {\n    function flash(\n        address recipient,\n        uint256 amount0,\n        uint256 amount1,\n        bytes calldata data\n    ) external;\n}\ninterface IERC20Token {\n    function transfer(address _to, uint256 _value) external returns (bool success);\n}\n",
  "sourcePath": "contracts/TestUniswapV3FlashCallback.sol",
  "type": "contract"
}